{
  "_format": "hh-sol-artifact-1",
  "contractName": "BluBoyX",
  "sourceName": "contracts/BluBoyX.sol",
  "abi": [
    {
      "inputs": [],
      "stateMutability": "nonpayable",
      "type": "constructor"
    },
    {
      "anonymous": false,
      "inputs": [
        {
          "indexed": true,
          "internalType": "address",
          "name": "account",
          "type": "address"
        },
        {
          "indexed": true,
          "internalType": "address",
          "name": "operator",
          "type": "address"
        },
        {
          "indexed": false,
          "internalType": "bool",
          "name": "approved",
          "type": "bool"
        }
      ],
      "name": "ApprovalForAll",
      "type": "event"
    },
    {
      "anonymous": false,
      "inputs": [
        {
          "indexed": true,
          "internalType": "address",
          "name": "operator",
          "type": "address"
        },
        {
          "indexed": true,
          "internalType": "address",
          "name": "from",
          "type": "address"
        },
        {
          "indexed": true,
          "internalType": "address",
          "name": "to",
          "type": "address"
        },
        {
          "indexed": false,
          "internalType": "uint256[]",
          "name": "ids",
          "type": "uint256[]"
        },
        {
          "indexed": false,
          "internalType": "uint256[]",
          "name": "values",
          "type": "uint256[]"
        }
      ],
      "name": "TransferBatch",
      "type": "event"
    },
    {
      "anonymous": false,
      "inputs": [
        {
          "indexed": true,
          "internalType": "address",
          "name": "operator",
          "type": "address"
        },
        {
          "indexed": true,
          "internalType": "address",
          "name": "from",
          "type": "address"
        },
        {
          "indexed": true,
          "internalType": "address",
          "name": "to",
          "type": "address"
        },
        {
          "indexed": false,
          "internalType": "uint256",
          "name": "id",
          "type": "uint256"
        },
        {
          "indexed": false,
          "internalType": "uint256",
          "name": "value",
          "type": "uint256"
        }
      ],
      "name": "TransferSingle",
      "type": "event"
    },
    {
      "anonymous": false,
      "inputs": [
        {
          "indexed": false,
          "internalType": "string",
          "name": "value",
          "type": "string"
        },
        {
          "indexed": true,
          "internalType": "uint256",
          "name": "id",
          "type": "uint256"
        }
      ],
      "name": "URI",
      "type": "event"
    },
    {
      "inputs": [],
      "name": "_tokens",
      "outputs": [
        {
          "internalType": "uint256",
          "name": "",
          "type": "uint256"
        }
      ],
      "stateMutability": "view",
      "type": "function"
    },
    {
      "inputs": [],
      "name": "_total",
      "outputs": [
        {
          "internalType": "uint256",
          "name": "",
          "type": "uint256"
        }
      ],
      "stateMutability": "view",
      "type": "function"
    },
    {
      "inputs": [
        {
          "internalType": "address",
          "name": "account",
          "type": "address"
        },
        {
          "internalType": "uint256",
          "name": "id",
          "type": "uint256"
        }
      ],
      "name": "balanceOf",
      "outputs": [
        {
          "internalType": "uint256",
          "name": "",
          "type": "uint256"
        }
      ],
      "stateMutability": "view",
      "type": "function"
    },
    {
      "inputs": [
        {
          "internalType": "address[]",
          "name": "accounts",
          "type": "address[]"
        },
        {
          "internalType": "uint256[]",
          "name": "ids",
          "type": "uint256[]"
        }
      ],
      "name": "balanceOfBatch",
      "outputs": [
        {
          "internalType": "uint256[]",
          "name": "",
          "type": "uint256[]"
        }
      ],
      "stateMutability": "view",
      "type": "function"
    },
    {
      "inputs": [
        {
          "internalType": "address",
          "name": "account",
          "type": "address"
        },
        {
          "internalType": "address",
          "name": "operator",
          "type": "address"
        }
      ],
      "name": "isApprovedForAll",
      "outputs": [
        {
          "internalType": "bool",
          "name": "",
          "type": "bool"
        }
      ],
      "stateMutability": "view",
      "type": "function"
    },
    {
      "inputs": [
        {
          "internalType": "uint256",
          "name": "count",
          "type": "uint256"
        }
      ],
      "name": "mint",
      "outputs": [],
      "stateMutability": "payable",
      "type": "function"
    },
    {
      "inputs": [],
      "name": "name",
      "outputs": [
        {
          "internalType": "string",
          "name": "",
          "type": "string"
        }
      ],
      "stateMutability": "view",
      "type": "function"
    },
    {
      "inputs": [
        {
          "internalType": "address",
          "name": "from",
          "type": "address"
        },
        {
          "internalType": "address",
          "name": "to",
          "type": "address"
        },
        {
          "internalType": "uint256[]",
          "name": "ids",
          "type": "uint256[]"
        },
        {
          "internalType": "uint256[]",
          "name": "amounts",
          "type": "uint256[]"
        },
        {
          "internalType": "bytes",
          "name": "data",
          "type": "bytes"
        }
      ],
      "name": "safeBatchTransferFrom",
      "outputs": [],
      "stateMutability": "nonpayable",
      "type": "function"
    },
    {
      "inputs": [
        {
          "internalType": "address",
          "name": "from",
          "type": "address"
        },
        {
          "internalType": "address",
          "name": "to",
          "type": "address"
        },
        {
          "internalType": "uint256",
          "name": "id",
          "type": "uint256"
        },
        {
          "internalType": "uint256",
          "name": "amount",
          "type": "uint256"
        },
        {
          "internalType": "bytes",
          "name": "data",
          "type": "bytes"
        }
      ],
      "name": "safeTransferFrom",
      "outputs": [],
      "stateMutability": "nonpayable",
      "type": "function"
    },
    {
      "inputs": [
        {
          "internalType": "address",
          "name": "operator",
          "type": "address"
        },
        {
          "internalType": "bool",
          "name": "approved",
          "type": "bool"
        }
      ],
      "name": "setApprovalForAll",
      "outputs": [],
      "stateMutability": "nonpayable",
      "type": "function"
    },
    {
      "inputs": [
        {
          "internalType": "bytes4",
          "name": "interfaceId",
          "type": "bytes4"
        }
      ],
      "name": "supportsInterface",
      "outputs": [
        {
          "internalType": "bool",
          "name": "",
          "type": "bool"
        }
      ],
      "stateMutability": "view",
      "type": "function"
    },
    {
      "inputs": [],
      "name": "symbol",
      "outputs": [
        {
          "internalType": "string",
          "name": "",
          "type": "string"
        }
      ],
      "stateMutability": "view",
      "type": "function"
    },
    {
      "inputs": [],
      "name": "tokensCount",
      "outputs": [
        {
          "internalType": "uint256",
          "name": "",
          "type": "uint256"
        }
      ],
      "stateMutability": "view",
      "type": "function"
    },
    {
      "inputs": [
        {
          "internalType": "uint256",
          "name": "",
          "type": "uint256"
        }
      ],
      "name": "uri",
      "outputs": [
        {
          "internalType": "string",
          "name": "",
          "type": "string"
        }
      ],
      "stateMutability": "view",
      "type": "function"
    },
    {
      "inputs": [
        {
          "internalType": "address",
          "name": "_address",
          "type": "address"
        }
      ],
      "name": "userHaveTokens",
      "outputs": [
        {
          "internalType": "uint256",
          "name": "",
          "type": "uint256"
        }
      ],
      "stateMutability": "view",
      "type": "function"
    }
  ],
  "bytecode": "0x60806040523480156200001157600080fd5b506040518060800160405280604d815260200162001aa7604d91396200003781620000c4565b50600380546001600160a01b0319163317905560408051808201909152600880825267109b1d55dbdc9b1960c21b6020909201918252620000799181620000dd565b506040805180820190915260038082526208484b60eb1b6020909201918252620000a691600991620000dd565b5061138260055561138860075566038d7ea4c68000600655620001c0565b8051620000d9906002906020840190620000dd565b5050565b828054620000eb9062000183565b90600052602060002090601f0160209004810192826200010f57600085556200015a565b82601f106200012a57805160ff19168380011785556200015a565b828001600101855582156200015a579182015b828111156200015a5782518255916020019190600101906200013d565b50620001689291506200016c565b5090565b5b808211156200016857600081556001016200016d565b600181811c908216806200019857607f821691505b60208210811415620001ba57634e487b7160e01b600052602260045260246000fd5b50919050565b6118d780620001d06000396000f3fe6080604052600436106100e75760003560e01c80637a27da791161008a578063a22cb46511610059578063a22cb4651461026a578063a64ed8ba1461028a578063e985e9c51461029f578063f242432a146102e857600080fd5b80637a27da79146102165780638970d84c1461022c57806395d89b4114610242578063a0712d681461025757600080fd5b80630e89341c116100c65780630e89341c146101715780631147a804146101915780632eb2c2d6146101c75780634e1273f4146101e957600080fd5b8062fdd58e146100ec57806301ffc9a71461011f57806306fdde031461014f575b600080fd5b3480156100f857600080fd5b5061010c61010736600461131a565b610308565b6040519081526020015b60405180910390f35b34801561012b57600080fd5b5061013f61013a36600461140e565b61039f565b6040519015158152602001610116565b34801561015b57600080fd5b506101646103f1565b60405161011691906115c7565b34801561017d57600080fd5b5061016461018c366004611446565b61047f565b34801561019d57600080fd5b5061010c6101ac366004611184565b6001600160a01b031660009081526004602052604090205490565b3480156101d357600080fd5b506101e76101e23660046111d7565b610513565b005b3480156101f557600080fd5b50610209610204366004611343565b6105aa565b6040516101169190611586565b34801561022257600080fd5b5061010c60075481565b34801561023857600080fd5b5061010c60055481565b34801561024e57600080fd5b5061016461070c565b6101e7610265366004611446565b610719565b34801561027657600080fd5b506101e76102853660046112e0565b610879565b34801561029657600080fd5b5060055461010c565b3480156102ab57600080fd5b5061013f6102ba3660046111a5565b6001600160a01b03918216600090815260016020908152604080832093909416825291909152205460ff1690565b3480156102f457600080fd5b506101e761030336600461127d565b610950565b60006001600160a01b0383166103795760405162461bcd60e51b815260206004820152602b60248201527f455243313135353a2062616c616e636520717565727920666f7220746865207a60448201526a65726f206164647265737360a81b60648201526084015b60405180910390fd5b506000908152602081815260408083206001600160a01b03949094168352929052205490565b60006001600160e01b03198216636cdb3d1360e11b14806103d057506001600160e01b031982166303a24d0760e21b145b806103eb57506301ffc9a760e01b6001600160e01b03198316145b92915050565b600880546103fe9061173a565b80601f016020809104026020016040519081016040528092919081815260200182805461042a9061173a565b80156104775780601f1061044c57610100808354040283529160200191610477565b820191906000526020600020905b81548152906001019060200180831161045a57829003601f168201915b505050505081565b60606002805461048e9061173a565b80601f01602080910402602001604051908101604052809291908181526020018280546104ba9061173a565b80156105075780601f106104dc57610100808354040283529160200191610507565b820191906000526020600020905b8154815290600101906020018083116104ea57829003601f168201915b50505050509050919050565b6001600160a01b03851633148061052f575061052f85336102ba565b6105965760405162461bcd60e51b815260206004820152603260248201527f455243313135353a207472616e736665722063616c6c6572206973206e6f74206044820152711bdddb995c881b9bdc88185c1c1c9bdd995960721b6064820152608401610370565b6105a385858585856109d7565b5050505050565b6060815183511461060f5760405162461bcd60e51b815260206004820152602960248201527f455243313135353a206163636f756e747320616e6420696473206c656e677468604482015268040dad2e6dac2e8c6d60bb1b6064820152608401610370565b6000835167ffffffffffffffff81111561063957634e487b7160e01b600052604160045260246000fd5b604051908082528060200260200182016040528015610662578160200160208202803683370190505b50905060005b8451811015610704576106c985828151811061069457634e487b7160e01b600052603260045260246000fd5b60200260200101518583815181106106bc57634e487b7160e01b600052603260045260246000fd5b6020026020010151610308565b8282815181106106e957634e487b7160e01b600052603260045260246000fd5b60209081029190910101526106fd816117a2565b9050610668565b509392505050565b600980546103fe9061173a565b6000600554116107595760405162461bcd60e51b815260206004820152600b60248201526a6f7574206f66204e46547360a81b6044820152606401610370565b6003546006546001600160a01b039091169061077590836116ed565b604051600081818185875af1925050503d80600081146107b1576040519150601f19603f3d011682016040523d82523d6000602084013e6107b6565b606091505b50505060005b81811015610823576107fb3360066005546007546107da919061170c565b6107e4919061170c565b600160405180602001604052806000815250610bd0565b6005805490600061080b83611723565b9190505550808061081b906117a2565b9150506107bc565b5033600090815260046020526040902054156108635733600090815260046020526040812080548392906108589084906116d5565b909155506108769050565b3360009081526004602052604090208190555b50565b336001600160a01b03831614156108e45760405162461bcd60e51b815260206004820152602960248201527f455243313135353a2073657474696e6720617070726f76616c20737461747573604482015268103337b91039b2b63360b91b6064820152608401610370565b3360008181526001602090815260408083206001600160a01b03871680855290835292819020805460ff191686151590811790915590519081529192917f17307eab39ab6107e8899845ad3d59bd9653f200f220920489ca2b5937696c31910160405180910390a35050565b6001600160a01b03851633148061096c575061096c85336102ba565b6109ca5760405162461bcd60e51b815260206004820152602960248201527f455243313135353a2063616c6c6572206973206e6f74206f776e6572206e6f7260448201526808185c1c1c9bdd995960ba1b6064820152608401610370565b6105a38585858585610cda565b8151835114610a395760405162461bcd60e51b815260206004820152602860248201527f455243313135353a2069647320616e6420616d6f756e7473206c656e677468206044820152670dad2e6dac2e8c6d60c31b6064820152608401610370565b6001600160a01b038416610a5f5760405162461bcd60e51b815260040161037090611622565b3360005b8451811015610b62576000858281518110610a8e57634e487b7160e01b600052603260045260246000fd5b602002602001015190506000858381518110610aba57634e487b7160e01b600052603260045260246000fd5b602090810291909101810151600084815280835260408082206001600160a01b038e168352909352919091205490915081811015610b0a5760405162461bcd60e51b815260040161037090611667565b6000838152602081815260408083206001600160a01b038e8116855292528083208585039055908b16825281208054849290610b479084906116d5565b9250508190555050505080610b5b906117a2565b9050610a63565b50846001600160a01b0316866001600160a01b0316826001600160a01b03167f4a39dc06d4c0dbc64b70af90fd698a233a518aa5d07e595d983b8c0526c8f7fb8787604051610bb2929190611599565b60405180910390a4610bc8818787878787610df7565b505050505050565b6001600160a01b038416610c305760405162461bcd60e51b815260206004820152602160248201527f455243313135353a206d696e7420746f20746865207a65726f206164647265736044820152607360f81b6064820152608401610370565b33610c4a81600087610c4188610f62565b6105a388610f62565b6000848152602081815260408083206001600160a01b038916845290915281208054859290610c7a9084906116d5565b909155505060408051858152602081018590526001600160a01b0380881692600092918516917fc3d58168c5ae7397731d063d5bbf3d657854427343f4c083240f7aacaa2d0f62910160405180910390a46105a381600087878787610fbb565b6001600160a01b038416610d005760405162461bcd60e51b815260040161037090611622565b33610d10818787610c4188610f62565b6000848152602081815260408083206001600160a01b038a16845290915290205483811015610d515760405162461bcd60e51b815260040161037090611667565b6000858152602081815260408083206001600160a01b038b8116855292528083208785039055908816825281208054869290610d8e9084906116d5565b909155505060408051868152602081018690526001600160a01b03808916928a821692918616917fc3d58168c5ae7397731d063d5bbf3d657854427343f4c083240f7aacaa2d0f62910160405180910390a4610dee828888888888610fbb565b50505050505050565b6001600160a01b0384163b15610bc85760405163bc197c8160e01b81526001600160a01b0385169063bc197c8190610e3b90899089908890889088906004016114e3565b602060405180830381600087803b158015610e5557600080fd5b505af1925050508015610e85575060408051601f3d908101601f19168201909252610e829181019061142a565b60015b610f3257610e916117e9565b806308c379a01415610ecb5750610ea6611801565b80610eb15750610ecd565b8060405162461bcd60e51b815260040161037091906115c7565b505b60405162461bcd60e51b815260206004820152603460248201527f455243313135353a207472616e7366657220746f206e6f6e20455243313135356044820152732932b1b2b4bb32b91034b6b83632b6b2b73a32b960611b6064820152608401610370565b6001600160e01b0319811663bc197c8160e01b14610dee5760405162461bcd60e51b8152600401610370906115da565b60408051600180825281830190925260609160009190602080830190803683370190505090508281600081518110610faa57634e487b7160e01b600052603260045260246000fd5b602090810291909101015292915050565b6001600160a01b0384163b15610bc85760405163f23a6e6160e01b81526001600160a01b0385169063f23a6e6190610fff9089908990889088908890600401611541565b602060405180830381600087803b15801561101957600080fd5b505af1925050508015611049575060408051601f3d908101601f191682019092526110469181019061142a565b60015b61105557610e916117e9565b6001600160e01b0319811663f23a6e6160e01b14610dee5760405162461bcd60e51b8152600401610370906115da565b80356001600160a01b038116811461109c57600080fd5b919050565b600082601f8301126110b1578081fd5b813560206110be826116b1565b6040516110cb8282611775565b8381528281019150858301600585901b870184018810156110ea578586fd5b855b85811015611108578135845292840192908401906001016110ec565b5090979650505050505050565b600082601f830112611125578081fd5b813567ffffffffffffffff81111561113f5761113f6117d3565b604051611156601f8301601f191660200182611775565b81815284602083860101111561116a578283fd5b816020850160208301379081016020019190915292915050565b600060208284031215611195578081fd5b61119e82611085565b9392505050565b600080604083850312156111b7578081fd5b6111c083611085565b91506111ce60208401611085565b90509250929050565b600080600080600060a086880312156111ee578081fd5b6111f786611085565b945061120560208701611085565b9350604086013567ffffffffffffffff80821115611221578283fd5b61122d89838a016110a1565b94506060880135915080821115611242578283fd5b61124e89838a016110a1565b93506080880135915080821115611263578283fd5b5061127088828901611115565b9150509295509295909350565b600080600080600060a08688031215611294578081fd5b61129d86611085565b94506112ab60208701611085565b93506040860135925060608601359150608086013567ffffffffffffffff8111156112d4578182fd5b61127088828901611115565b600080604083850312156112f2578182fd5b6112fb83611085565b91506020830135801515811461130f578182fd5b809150509250929050565b6000806040838503121561132c578182fd5b61133583611085565b946020939093013593505050565b60008060408385031215611355578182fd5b823567ffffffffffffffff8082111561136c578384fd5b818501915085601f83011261137f578384fd5b8135602061138c826116b1565b6040516113998282611775565b8381528281019150858301600585901b870184018b10156113b8578889fd5b8896505b848710156113e1576113cd81611085565b8352600196909601959183019183016113bc565b50965050860135925050808211156113f7578283fd5b50611404858286016110a1565b9150509250929050565b60006020828403121561141f578081fd5b813561119e8161188b565b60006020828403121561143b578081fd5b815161119e8161188b565b600060208284031215611457578081fd5b5035919050565b6000815180845260208085019450808401835b8381101561148d57815187529582019590820190600101611471565b509495945050505050565b60008151808452815b818110156114bd576020818501810151868301820152016114a1565b818111156114ce5782602083870101525b50601f01601f19169290920160200192915050565b6001600160a01b0386811682528516602082015260a06040820181905260009061150f9083018661145e565b8281036060840152611521818661145e565b905082810360808401526115358185611498565b98975050505050505050565b6001600160a01b03868116825285166020820152604081018490526060810183905260a06080820181905260009061157b90830184611498565b979650505050505050565b60208152600061119e602083018461145e565b6040815260006115ac604083018561145e565b82810360208401526115be818561145e565b95945050505050565b60208152600061119e6020830184611498565b60208082526028908201527f455243313135353a204552433131353552656365697665722072656a656374656040820152676420746f6b656e7360c01b606082015260800190565b60208082526025908201527f455243313135353a207472616e7366657220746f20746865207a65726f206164604082015264647265737360d81b606082015260800190565b6020808252602a908201527f455243313135353a20696e73756666696369656e742062616c616e636520666f60408201526939103a3930b739b332b960b11b606082015260800190565b600067ffffffffffffffff8211156116cb576116cb6117d3565b5060051b60200190565b600082198211156116e8576116e86117bd565b500190565b6000816000190483118215151615611707576117076117bd565b500290565b60008282101561171e5761171e6117bd565b500390565b600081611732576117326117bd565b506000190190565b600181811c9082168061174e57607f821691505b6020821081141561176f57634e487b7160e01b600052602260045260246000fd5b50919050565b601f8201601f1916810167ffffffffffffffff8111828210171561179b5761179b6117d3565b6040525050565b60006000198214156117b6576117b66117bd565b5060010190565b634e487b7160e01b600052601160045260246000fd5b634e487b7160e01b600052604160045260246000fd5b600060033d11156117fe57600481823e5160e01c5b90565b600060443d101561180f5790565b6040516003193d81016004833e81513d67ffffffffffffffff816024840111818411171561183f57505050505090565b82850191508151818111156118575750505050505090565b843d87010160208285010111156118715750505050505090565b61188060208286010187611775565b509095945050505050565b6001600160e01b03198116811461087657600080fdfea26469706673582212205b213a8442beec53809082b20818a5a7f82cd9eeb5729eec12a6ac61b0439b9c64736f6c6343000804003368747470733a2f2f697066732e696f2f697066732f516d65783762517173357657346e4b6774427a63796741506375767857487968394e67727346325143366d5563562f7b69647d2e6a736f6e",
  "linkReferences": {},
  "deployedLinkReferences": {}
}