{
  "contracts/BluBoyX.sol": {
    "BluBoyX": {
      "abi": [
        {
          "inputs": [],
          "stateMutability": "nonpayable",
          "type": "constructor"
        },
        {
          "anonymous": false,
          "inputs": [
            {
              "indexed": true,
              "internalType": "address",
              "name": "account",
              "type": "address"
            },
            {
              "indexed": true,
              "internalType": "address",
              "name": "operator",
              "type": "address"
            },
            {
              "indexed": false,
              "internalType": "bool",
              "name": "approved",
              "type": "bool"
            }
          ],
          "name": "ApprovalForAll",
          "type": "event"
        },
        {
          "anonymous": false,
          "inputs": [
            {
              "indexed": true,
              "internalType": "address",
              "name": "operator",
              "type": "address"
            },
            {
              "indexed": true,
              "internalType": "address",
              "name": "from",
              "type": "address"
            },
            {
              "indexed": true,
              "internalType": "address",
              "name": "to",
              "type": "address"
            },
            {
              "indexed": false,
              "internalType": "uint256[]",
              "name": "ids",
              "type": "uint256[]"
            },
            {
              "indexed": false,
              "internalType": "uint256[]",
              "name": "values",
              "type": "uint256[]"
            }
          ],
          "name": "TransferBatch",
          "type": "event"
        },
        {
          "anonymous": false,
          "inputs": [
            {
              "indexed": true,
              "internalType": "address",
              "name": "operator",
              "type": "address"
            },
            {
              "indexed": true,
              "internalType": "address",
              "name": "from",
              "type": "address"
            },
            {
              "indexed": true,
              "internalType": "address",
              "name": "to",
              "type": "address"
            },
            {
              "indexed": false,
              "internalType": "uint256",
              "name": "id",
              "type": "uint256"
            },
            {
              "indexed": false,
              "internalType": "uint256",
              "name": "value",
              "type": "uint256"
            }
          ],
          "name": "TransferSingle",
          "type": "event"
        },
        {
          "anonymous": false,
          "inputs": [
            {
              "indexed": false,
              "internalType": "string",
              "name": "value",
              "type": "string"
            },
            {
              "indexed": true,
              "internalType": "uint256",
              "name": "id",
              "type": "uint256"
            }
          ],
          "name": "URI",
          "type": "event"
        },
        {
          "inputs": [],
          "name": "_tokens",
          "outputs": [
            {
              "internalType": "uint256",
              "name": "",
              "type": "uint256"
            }
          ],
          "stateMutability": "view",
          "type": "function"
        },
        {
          "inputs": [],
          "name": "_total",
          "outputs": [
            {
              "internalType": "uint256",
              "name": "",
              "type": "uint256"
            }
          ],
          "stateMutability": "view",
          "type": "function"
        },
        {
          "inputs": [
            {
              "internalType": "address",
              "name": "account",
              "type": "address"
            },
            {
              "internalType": "uint256",
              "name": "id",
              "type": "uint256"
            }
          ],
          "name": "balanceOf",
          "outputs": [
            {
              "internalType": "uint256",
              "name": "",
              "type": "uint256"
            }
          ],
          "stateMutability": "view",
          "type": "function"
        },
        {
          "inputs": [
            {
              "internalType": "address[]",
              "name": "accounts",
              "type": "address[]"
            },
            {
              "internalType": "uint256[]",
              "name": "ids",
              "type": "uint256[]"
            }
          ],
          "name": "balanceOfBatch",
          "outputs": [
            {
              "internalType": "uint256[]",
              "name": "",
              "type": "uint256[]"
            }
          ],
          "stateMutability": "view",
          "type": "function"
        },
        {
          "inputs": [
            {
              "internalType": "address",
              "name": "account",
              "type": "address"
            },
            {
              "internalType": "address",
              "name": "operator",
              "type": "address"
            }
          ],
          "name": "isApprovedForAll",
          "outputs": [
            {
              "internalType": "bool",
              "name": "",
              "type": "bool"
            }
          ],
          "stateMutability": "view",
          "type": "function"
        },
        {
          "inputs": [
            {
              "internalType": "uint256",
              "name": "count",
              "type": "uint256"
            }
          ],
          "name": "mint",
          "outputs": [],
          "stateMutability": "payable",
          "type": "function"
        },
        {
          "inputs": [],
          "name": "name",
          "outputs": [
            {
              "internalType": "string",
              "name": "",
              "type": "string"
            }
          ],
          "stateMutability": "view",
          "type": "function"
        },
        {
          "inputs": [
            {
              "internalType": "address",
              "name": "from",
              "type": "address"
            },
            {
              "internalType": "address",
              "name": "to",
              "type": "address"
            },
            {
              "internalType": "uint256[]",
              "name": "ids",
              "type": "uint256[]"
            },
            {
              "internalType": "uint256[]",
              "name": "amounts",
              "type": "uint256[]"
            },
            {
              "internalType": "bytes",
              "name": "data",
              "type": "bytes"
            }
          ],
          "name": "safeBatchTransferFrom",
          "outputs": [],
          "stateMutability": "nonpayable",
          "type": "function"
        },
        {
          "inputs": [
            {
              "internalType": "address",
              "name": "from",
              "type": "address"
            },
            {
              "internalType": "address",
              "name": "to",
              "type": "address"
            },
            {
              "internalType": "uint256",
              "name": "id",
              "type": "uint256"
            },
            {
              "internalType": "uint256",
              "name": "amount",
              "type": "uint256"
            },
            {
              "internalType": "bytes",
              "name": "data",
              "type": "bytes"
            }
          ],
          "name": "safeTransferFrom",
          "outputs": [],
          "stateMutability": "nonpayable",
          "type": "function"
        },
        {
          "inputs": [
            {
              "internalType": "address",
              "name": "operator",
              "type": "address"
            },
            {
              "internalType": "bool",
              "name": "approved",
              "type": "bool"
            }
          ],
          "name": "setApprovalForAll",
          "outputs": [],
          "stateMutability": "nonpayable",
          "type": "function"
        },
        {
          "inputs": [
            {
              "internalType": "bytes4",
              "name": "interfaceId",
              "type": "bytes4"
            }
          ],
          "name": "supportsInterface",
          "outputs": [
            {
              "internalType": "bool",
              "name": "",
              "type": "bool"
            }
          ],
          "stateMutability": "view",
          "type": "function"
        },
        {
          "inputs": [],
          "name": "symbol",
          "outputs": [
            {
              "internalType": "string",
              "name": "",
              "type": "string"
            }
          ],
          "stateMutability": "view",
          "type": "function"
        },
        {
          "inputs": [],
          "name": "tokensCount",
          "outputs": [
            {
              "internalType": "uint256",
              "name": "",
              "type": "uint256"
            }
          ],
          "stateMutability": "view",
          "type": "function"
        },
        {
          "inputs": [
            {
              "internalType": "uint256",
              "name": "",
              "type": "uint256"
            }
          ],
          "name": "uri",
          "outputs": [
            {
              "internalType": "string",
              "name": "",
              "type": "string"
            }
          ],
          "stateMutability": "view",
          "type": "function"
        },
        {
          "inputs": [
            {
              "internalType": "address",
              "name": "_address",
              "type": "address"
            }
          ],
          "name": "userHaveTokens",
          "outputs": [
            {
              "internalType": "uint256",
              "name": "",
              "type": "uint256"
            }
          ],
          "stateMutability": "view",
          "type": "function"
        }
      ],
      "devdoc": {
        "kind": "dev",
        "methods": {
          "balanceOf(address,uint256)": {
            "details": "See {IERC1155-balanceOf}. Requirements: - `account` cannot be the zero address."
          },
          "balanceOfBatch(address[],uint256[])": {
            "details": "See {IERC1155-balanceOfBatch}. Requirements: - `accounts` and `ids` must have the same length."
          },
          "isApprovedForAll(address,address)": {
            "details": "See {IERC1155-isApprovedForAll}."
          },
          "safeBatchTransferFrom(address,address,uint256[],uint256[],bytes)": {
            "details": "See {IERC1155-safeBatchTransferFrom}."
          },
          "safeTransferFrom(address,address,uint256,uint256,bytes)": {
            "details": "See {IERC1155-safeTransferFrom}."
          },
          "setApprovalForAll(address,bool)": {
            "details": "See {IERC1155-setApprovalForAll}."
          },
          "supportsInterface(bytes4)": {
            "details": "See {IERC165-supportsInterface}."
          },
          "uri(uint256)": {
            "details": "See {IERC1155MetadataURI-uri}. This implementation returns the same URI for *all* token types. It relies on the token type ID substitution mechanism https://eips.ethereum.org/EIPS/eip-1155#metadata[defined in the EIP]. Clients calling this function must replace the `\\{id\\}` substring with the actual token type ID."
          }
        },
        "version": 1
      },
      "evm": {
        "bytecode": {
          "linkReferences": {},
          "object": "60806040523480156200001157600080fd5b506040518060800160405280604d815260200162001aa7604d91396200003781620000c4565b50600380546001600160a01b0319163317905560408051808201909152600880825267109b1d55dbdc9b1960c21b6020909201918252620000799181620000dd565b506040805180820190915260038082526208484b60eb1b6020909201918252620000a691600991620000dd565b5061138260055561138860075566038d7ea4c68000600655620001c0565b8051620000d9906002906020840190620000dd565b5050565b828054620000eb9062000183565b90600052602060002090601f0160209004810192826200010f57600085556200015a565b82601f106200012a57805160ff19168380011785556200015a565b828001600101855582156200015a579182015b828111156200015a5782518255916020019190600101906200013d565b50620001689291506200016c565b5090565b5b808211156200016857600081556001016200016d565b600181811c908216806200019857607f821691505b60208210811415620001ba57634e487b7160e01b600052602260045260246000fd5b50919050565b6118d780620001d06000396000f3fe6080604052600436106100e75760003560e01c80637a27da791161008a578063a22cb46511610059578063a22cb4651461026a578063a64ed8ba1461028a578063e985e9c51461029f578063f242432a146102e857600080fd5b80637a27da79146102165780638970d84c1461022c57806395d89b4114610242578063a0712d681461025757600080fd5b80630e89341c116100c65780630e89341c146101715780631147a804146101915780632eb2c2d6146101c75780634e1273f4146101e957600080fd5b8062fdd58e146100ec57806301ffc9a71461011f57806306fdde031461014f575b600080fd5b3480156100f857600080fd5b5061010c61010736600461131a565b610308565b6040519081526020015b60405180910390f35b34801561012b57600080fd5b5061013f61013a36600461140e565b61039f565b6040519015158152602001610116565b34801561015b57600080fd5b506101646103f1565b60405161011691906115c7565b34801561017d57600080fd5b5061016461018c366004611446565b61047f565b34801561019d57600080fd5b5061010c6101ac366004611184565b6001600160a01b031660009081526004602052604090205490565b3480156101d357600080fd5b506101e76101e23660046111d7565b610513565b005b3480156101f557600080fd5b50610209610204366004611343565b6105aa565b6040516101169190611586565b34801561022257600080fd5b5061010c60075481565b34801561023857600080fd5b5061010c60055481565b34801561024e57600080fd5b5061016461070c565b6101e7610265366004611446565b610719565b34801561027657600080fd5b506101e76102853660046112e0565b610879565b34801561029657600080fd5b5060055461010c565b3480156102ab57600080fd5b5061013f6102ba3660046111a5565b6001600160a01b03918216600090815260016020908152604080832093909416825291909152205460ff1690565b3480156102f457600080fd5b506101e761030336600461127d565b610950565b60006001600160a01b0383166103795760405162461bcd60e51b815260206004820152602b60248201527f455243313135353a2062616c616e636520717565727920666f7220746865207a60448201526a65726f206164647265737360a81b60648201526084015b60405180910390fd5b506000908152602081815260408083206001600160a01b03949094168352929052205490565b60006001600160e01b03198216636cdb3d1360e11b14806103d057506001600160e01b031982166303a24d0760e21b145b806103eb57506301ffc9a760e01b6001600160e01b03198316145b92915050565b600880546103fe9061173a565b80601f016020809104026020016040519081016040528092919081815260200182805461042a9061173a565b80156104775780601f1061044c57610100808354040283529160200191610477565b820191906000526020600020905b81548152906001019060200180831161045a57829003601f168201915b505050505081565b60606002805461048e9061173a565b80601f01602080910402602001604051908101604052809291908181526020018280546104ba9061173a565b80156105075780601f106104dc57610100808354040283529160200191610507565b820191906000526020600020905b8154815290600101906020018083116104ea57829003601f168201915b50505050509050919050565b6001600160a01b03851633148061052f575061052f85336102ba565b6105965760405162461bcd60e51b815260206004820152603260248201527f455243313135353a207472616e736665722063616c6c6572206973206e6f74206044820152711bdddb995c881b9bdc88185c1c1c9bdd995960721b6064820152608401610370565b6105a385858585856109d7565b5050505050565b6060815183511461060f5760405162461bcd60e51b815260206004820152602960248201527f455243313135353a206163636f756e747320616e6420696473206c656e677468604482015268040dad2e6dac2e8c6d60bb1b6064820152608401610370565b6000835167ffffffffffffffff81111561063957634e487b7160e01b600052604160045260246000fd5b604051908082528060200260200182016040528015610662578160200160208202803683370190505b50905060005b8451811015610704576106c985828151811061069457634e487b7160e01b600052603260045260246000fd5b60200260200101518583815181106106bc57634e487b7160e01b600052603260045260246000fd5b6020026020010151610308565b8282815181106106e957634e487b7160e01b600052603260045260246000fd5b60209081029190910101526106fd816117a2565b9050610668565b509392505050565b600980546103fe9061173a565b6000600554116107595760405162461bcd60e51b815260206004820152600b60248201526a6f7574206f66204e46547360a81b6044820152606401610370565b6003546006546001600160a01b039091169061077590836116ed565b604051600081818185875af1925050503d80600081146107b1576040519150601f19603f3d011682016040523d82523d6000602084013e6107b6565b606091505b50505060005b81811015610823576107fb3360066005546007546107da919061170c565b6107e4919061170c565b600160405180602001604052806000815250610bd0565b6005805490600061080b83611723565b9190505550808061081b906117a2565b9150506107bc565b5033600090815260046020526040902054156108635733600090815260046020526040812080548392906108589084906116d5565b909155506108769050565b3360009081526004602052604090208190555b50565b336001600160a01b03831614156108e45760405162461bcd60e51b815260206004820152602960248201527f455243313135353a2073657474696e6720617070726f76616c20737461747573604482015268103337b91039b2b63360b91b6064820152608401610370565b3360008181526001602090815260408083206001600160a01b03871680855290835292819020805460ff191686151590811790915590519081529192917f17307eab39ab6107e8899845ad3d59bd9653f200f220920489ca2b5937696c31910160405180910390a35050565b6001600160a01b03851633148061096c575061096c85336102ba565b6109ca5760405162461bcd60e51b815260206004820152602960248201527f455243313135353a2063616c6c6572206973206e6f74206f776e6572206e6f7260448201526808185c1c1c9bdd995960ba1b6064820152608401610370565b6105a38585858585610cda565b8151835114610a395760405162461bcd60e51b815260206004820152602860248201527f455243313135353a2069647320616e6420616d6f756e7473206c656e677468206044820152670dad2e6dac2e8c6d60c31b6064820152608401610370565b6001600160a01b038416610a5f5760405162461bcd60e51b815260040161037090611622565b3360005b8451811015610b62576000858281518110610a8e57634e487b7160e01b600052603260045260246000fd5b602002602001015190506000858381518110610aba57634e487b7160e01b600052603260045260246000fd5b602090810291909101810151600084815280835260408082206001600160a01b038e168352909352919091205490915081811015610b0a5760405162461bcd60e51b815260040161037090611667565b6000838152602081815260408083206001600160a01b038e8116855292528083208585039055908b16825281208054849290610b479084906116d5565b9250508190555050505080610b5b906117a2565b9050610a63565b50846001600160a01b0316866001600160a01b0316826001600160a01b03167f4a39dc06d4c0dbc64b70af90fd698a233a518aa5d07e595d983b8c0526c8f7fb8787604051610bb2929190611599565b60405180910390a4610bc8818787878787610df7565b505050505050565b6001600160a01b038416610c305760405162461bcd60e51b815260206004820152602160248201527f455243313135353a206d696e7420746f20746865207a65726f206164647265736044820152607360f81b6064820152608401610370565b33610c4a81600087610c4188610f62565b6105a388610f62565b6000848152602081815260408083206001600160a01b038916845290915281208054859290610c7a9084906116d5565b909155505060408051858152602081018590526001600160a01b0380881692600092918516917fc3d58168c5ae7397731d063d5bbf3d657854427343f4c083240f7aacaa2d0f62910160405180910390a46105a381600087878787610fbb565b6001600160a01b038416610d005760405162461bcd60e51b815260040161037090611622565b33610d10818787610c4188610f62565b6000848152602081815260408083206001600160a01b038a16845290915290205483811015610d515760405162461bcd60e51b815260040161037090611667565b6000858152602081815260408083206001600160a01b038b8116855292528083208785039055908816825281208054869290610d8e9084906116d5565b909155505060408051868152602081018690526001600160a01b03808916928a821692918616917fc3d58168c5ae7397731d063d5bbf3d657854427343f4c083240f7aacaa2d0f62910160405180910390a4610dee828888888888610fbb565b50505050505050565b6001600160a01b0384163b15610bc85760405163bc197c8160e01b81526001600160a01b0385169063bc197c8190610e3b90899089908890889088906004016114e3565b602060405180830381600087803b158015610e5557600080fd5b505af1925050508015610e85575060408051601f3d908101601f19168201909252610e829181019061142a565b60015b610f3257610e916117e9565b806308c379a01415610ecb5750610ea6611801565b80610eb15750610ecd565b8060405162461bcd60e51b815260040161037091906115c7565b505b60405162461bcd60e51b815260206004820152603460248201527f455243313135353a207472616e7366657220746f206e6f6e20455243313135356044820152732932b1b2b4bb32b91034b6b83632b6b2b73a32b960611b6064820152608401610370565b6001600160e01b0319811663bc197c8160e01b14610dee5760405162461bcd60e51b8152600401610370906115da565b60408051600180825281830190925260609160009190602080830190803683370190505090508281600081518110610faa57634e487b7160e01b600052603260045260246000fd5b602090810291909101015292915050565b6001600160a01b0384163b15610bc85760405163f23a6e6160e01b81526001600160a01b0385169063f23a6e6190610fff9089908990889088908890600401611541565b602060405180830381600087803b15801561101957600080fd5b505af1925050508015611049575060408051601f3d908101601f191682019092526110469181019061142a565b60015b61105557610e916117e9565b6001600160e01b0319811663f23a6e6160e01b14610dee5760405162461bcd60e51b8152600401610370906115da565b80356001600160a01b038116811461109c57600080fd5b919050565b600082601f8301126110b1578081fd5b813560206110be826116b1565b6040516110cb8282611775565b8381528281019150858301600585901b870184018810156110ea578586fd5b855b85811015611108578135845292840192908401906001016110ec565b5090979650505050505050565b600082601f830112611125578081fd5b813567ffffffffffffffff81111561113f5761113f6117d3565b604051611156601f8301601f191660200182611775565b81815284602083860101111561116a578283fd5b816020850160208301379081016020019190915292915050565b600060208284031215611195578081fd5b61119e82611085565b9392505050565b600080604083850312156111b7578081fd5b6111c083611085565b91506111ce60208401611085565b90509250929050565b600080600080600060a086880312156111ee578081fd5b6111f786611085565b945061120560208701611085565b9350604086013567ffffffffffffffff80821115611221578283fd5b61122d89838a016110a1565b94506060880135915080821115611242578283fd5b61124e89838a016110a1565b93506080880135915080821115611263578283fd5b5061127088828901611115565b9150509295509295909350565b600080600080600060a08688031215611294578081fd5b61129d86611085565b94506112ab60208701611085565b93506040860135925060608601359150608086013567ffffffffffffffff8111156112d4578182fd5b61127088828901611115565b600080604083850312156112f2578182fd5b6112fb83611085565b91506020830135801515811461130f578182fd5b809150509250929050565b6000806040838503121561132c578182fd5b61133583611085565b946020939093013593505050565b60008060408385031215611355578182fd5b823567ffffffffffffffff8082111561136c578384fd5b818501915085601f83011261137f578384fd5b8135602061138c826116b1565b6040516113998282611775565b8381528281019150858301600585901b870184018b10156113b8578889fd5b8896505b848710156113e1576113cd81611085565b8352600196909601959183019183016113bc565b50965050860135925050808211156113f7578283fd5b50611404858286016110a1565b9150509250929050565b60006020828403121561141f578081fd5b813561119e8161188b565b60006020828403121561143b578081fd5b815161119e8161188b565b600060208284031215611457578081fd5b5035919050565b6000815180845260208085019450808401835b8381101561148d57815187529582019590820190600101611471565b509495945050505050565b60008151808452815b818110156114bd576020818501810151868301820152016114a1565b818111156114ce5782602083870101525b50601f01601f19169290920160200192915050565b6001600160a01b0386811682528516602082015260a06040820181905260009061150f9083018661145e565b8281036060840152611521818661145e565b905082810360808401526115358185611498565b98975050505050505050565b6001600160a01b03868116825285166020820152604081018490526060810183905260a06080820181905260009061157b90830184611498565b979650505050505050565b60208152600061119e602083018461145e565b6040815260006115ac604083018561145e565b82810360208401526115be818561145e565b95945050505050565b60208152600061119e6020830184611498565b60208082526028908201527f455243313135353a204552433131353552656365697665722072656a656374656040820152676420746f6b656e7360c01b606082015260800190565b60208082526025908201527f455243313135353a207472616e7366657220746f20746865207a65726f206164604082015264647265737360d81b606082015260800190565b6020808252602a908201527f455243313135353a20696e73756666696369656e742062616c616e636520666f60408201526939103a3930b739b332b960b11b606082015260800190565b600067ffffffffffffffff8211156116cb576116cb6117d3565b5060051b60200190565b600082198211156116e8576116e86117bd565b500190565b6000816000190483118215151615611707576117076117bd565b500290565b60008282101561171e5761171e6117bd565b500390565b600081611732576117326117bd565b506000190190565b600181811c9082168061174e57607f821691505b6020821081141561176f57634e487b7160e01b600052602260045260246000fd5b50919050565b601f8201601f1916810167ffffffffffffffff8111828210171561179b5761179b6117d3565b6040525050565b60006000198214156117b6576117b66117bd565b5060010190565b634e487b7160e01b600052601160045260246000fd5b634e487b7160e01b600052604160045260246000fd5b600060033d11156117fe57600481823e5160e01c5b90565b600060443d101561180f5790565b6040516003193d81016004833e81513d67ffffffffffffffff816024840111818411171561183f57505050505090565b82850191508151818111156118575750505050505090565b843d87010160208285010111156118715750505050505090565b61188060208286010187611775565b509095945050505050565b6001600160e01b03198116811461087657600080fdfea26469706673582212205b213a8442beec53809082b20818a5a7f82cd9eeb5729eec12a6ac61b0439b9c64736f6c6343000804003368747470733a2f2f697066732e696f2f697066732f516d65783762517173357657346e4b6774427a63796741506375767857487968394e67727346325143366d5563562f7b69647d2e6a736f6e",
          "opcodes": "PUSH1 0x80 PUSH1 0x40 MSTORE CALLVALUE DUP1 ISZERO PUSH3 0x11 JUMPI PUSH1 0x0 DUP1 REVERT JUMPDEST POP PUSH1 0x40 MLOAD DUP1 PUSH1 0x80 ADD PUSH1 0x40 MSTORE DUP1 PUSH1 0x4D DUP2 MSTORE PUSH1 0x20 ADD PUSH3 0x1AA7 PUSH1 0x4D SWAP2 CODECOPY PUSH3 0x37 DUP2 PUSH3 0xC4 JUMP JUMPDEST POP PUSH1 0x3 DUP1 SLOAD PUSH1 0x1 PUSH1 0x1 PUSH1 0xA0 SHL SUB NOT AND CALLER OR SWAP1 SSTORE PUSH1 0x40 DUP1 MLOAD DUP1 DUP3 ADD SWAP1 SWAP2 MSTORE PUSH1 0x8 DUP1 DUP3 MSTORE PUSH8 0x109B1D55DBDC9B19 PUSH1 0xC2 SHL PUSH1 0x20 SWAP1 SWAP3 ADD SWAP2 DUP3 MSTORE PUSH3 0x79 SWAP2 DUP2 PUSH3 0xDD JUMP JUMPDEST POP PUSH1 0x40 DUP1 MLOAD DUP1 DUP3 ADD SWAP1 SWAP2 MSTORE PUSH1 0x3 DUP1 DUP3 MSTORE PUSH3 0x8484B PUSH1 0xEB SHL PUSH1 0x20 SWAP1 SWAP3 ADD SWAP2 DUP3 MSTORE PUSH3 0xA6 SWAP2 PUSH1 0x9 SWAP2 PUSH3 0xDD JUMP JUMPDEST POP PUSH2 0x1382 PUSH1 0x5 SSTORE PUSH2 0x1388 PUSH1 0x7 SSTORE PUSH7 0x38D7EA4C68000 PUSH1 0x6 SSTORE PUSH3 0x1C0 JUMP JUMPDEST DUP1 MLOAD PUSH3 0xD9 SWAP1 PUSH1 0x2 SWAP1 PUSH1 0x20 DUP5 ADD SWAP1 PUSH3 0xDD JUMP JUMPDEST POP POP JUMP JUMPDEST DUP3 DUP1 SLOAD PUSH3 0xEB SWAP1 PUSH3 0x183 JUMP JUMPDEST SWAP1 PUSH1 0x0 MSTORE PUSH1 0x20 PUSH1 0x0 KECCAK256 SWAP1 PUSH1 0x1F ADD PUSH1 0x20 SWAP1 DIV DUP2 ADD SWAP3 DUP3 PUSH3 0x10F JUMPI PUSH1 0x0 DUP6 SSTORE PUSH3 0x15A JUMP JUMPDEST DUP3 PUSH1 0x1F LT PUSH3 0x12A JUMPI DUP1 MLOAD PUSH1 0xFF NOT AND DUP4 DUP1 ADD OR DUP6 SSTORE PUSH3 0x15A JUMP JUMPDEST DUP3 DUP1 ADD PUSH1 0x1 ADD DUP6 SSTORE DUP3 ISZERO PUSH3 0x15A JUMPI SWAP2 DUP3 ADD JUMPDEST DUP3 DUP2 GT ISZERO PUSH3 0x15A JUMPI DUP3 MLOAD DUP3 SSTORE SWAP2 PUSH1 0x20 ADD SWAP2 SWAP1 PUSH1 0x1 ADD SWAP1 PUSH3 0x13D JUMP JUMPDEST POP PUSH3 0x168 SWAP3 SWAP2 POP PUSH3 0x16C JUMP JUMPDEST POP SWAP1 JUMP JUMPDEST JUMPDEST DUP1 DUP3 GT ISZERO PUSH3 0x168 JUMPI PUSH1 0x0 DUP2 SSTORE PUSH1 0x1 ADD PUSH3 0x16D JUMP JUMPDEST PUSH1 0x1 DUP2 DUP2 SHR SWAP1 DUP3 AND DUP1 PUSH3 0x198 JUMPI PUSH1 0x7F DUP3 AND SWAP2 POP JUMPDEST PUSH1 0x20 DUP3 LT DUP2 EQ ISZERO PUSH3 0x1BA JUMPI PUSH4 0x4E487B71 PUSH1 0xE0 SHL PUSH1 0x0 MSTORE PUSH1 0x22 PUSH1 0x4 MSTORE PUSH1 0x24 PUSH1 0x0 REVERT JUMPDEST POP SWAP2 SWAP1 POP JUMP JUMPDEST PUSH2 0x18D7 DUP1 PUSH3 0x1D0 PUSH1 0x0 CODECOPY PUSH1 0x0 RETURN INVALID PUSH1 0x80 PUSH1 0x40 MSTORE PUSH1 0x4 CALLDATASIZE LT PUSH2 0xE7 JUMPI PUSH1 0x0 CALLDATALOAD PUSH1 0xE0 SHR DUP1 PUSH4 0x7A27DA79 GT PUSH2 0x8A JUMPI DUP1 PUSH4 0xA22CB465 GT PUSH2 0x59 JUMPI DUP1 PUSH4 0xA22CB465 EQ PUSH2 0x26A JUMPI DUP1 PUSH4 0xA64ED8BA EQ PUSH2 0x28A JUMPI DUP1 PUSH4 0xE985E9C5 EQ PUSH2 0x29F JUMPI DUP1 PUSH4 0xF242432A EQ PUSH2 0x2E8 JUMPI PUSH1 0x0 DUP1 REVERT JUMPDEST DUP1 PUSH4 0x7A27DA79 EQ PUSH2 0x216 JUMPI DUP1 PUSH4 0x8970D84C EQ PUSH2 0x22C JUMPI DUP1 PUSH4 0x95D89B41 EQ PUSH2 0x242 JUMPI DUP1 PUSH4 0xA0712D68 EQ PUSH2 0x257 JUMPI PUSH1 0x0 DUP1 REVERT JUMPDEST DUP1 PUSH4 0xE89341C GT PUSH2 0xC6 JUMPI DUP1 PUSH4 0xE89341C EQ PUSH2 0x171 JUMPI DUP1 PUSH4 0x1147A804 EQ PUSH2 0x191 JUMPI DUP1 PUSH4 0x2EB2C2D6 EQ PUSH2 0x1C7 JUMPI DUP1 PUSH4 0x4E1273F4 EQ PUSH2 0x1E9 JUMPI PUSH1 0x0 DUP1 REVERT JUMPDEST DUP1 PUSH3 0xFDD58E EQ PUSH2 0xEC JUMPI DUP1 PUSH4 0x1FFC9A7 EQ PUSH2 0x11F JUMPI DUP1 PUSH4 0x6FDDE03 EQ PUSH2 0x14F JUMPI JUMPDEST PUSH1 0x0 DUP1 REVERT JUMPDEST CALLVALUE DUP1 ISZERO PUSH2 0xF8 JUMPI PUSH1 0x0 DUP1 REVERT JUMPDEST POP PUSH2 0x10C PUSH2 0x107 CALLDATASIZE PUSH1 0x4 PUSH2 0x131A JUMP JUMPDEST PUSH2 0x308 JUMP JUMPDEST PUSH1 0x40 MLOAD SWAP1 DUP2 MSTORE PUSH1 0x20 ADD JUMPDEST PUSH1 0x40 MLOAD DUP1 SWAP2 SUB SWAP1 RETURN JUMPDEST CALLVALUE DUP1 ISZERO PUSH2 0x12B JUMPI PUSH1 0x0 DUP1 REVERT JUMPDEST POP PUSH2 0x13F PUSH2 0x13A CALLDATASIZE PUSH1 0x4 PUSH2 0x140E JUMP JUMPDEST PUSH2 0x39F JUMP JUMPDEST PUSH1 0x40 MLOAD SWAP1 ISZERO ISZERO DUP2 MSTORE PUSH1 0x20 ADD PUSH2 0x116 JUMP JUMPDEST CALLVALUE DUP1 ISZERO PUSH2 0x15B JUMPI PUSH1 0x0 DUP1 REVERT JUMPDEST POP PUSH2 0x164 PUSH2 0x3F1 JUMP JUMPDEST PUSH1 0x40 MLOAD PUSH2 0x116 SWAP2 SWAP1 PUSH2 0x15C7 JUMP JUMPDEST CALLVALUE DUP1 ISZERO PUSH2 0x17D JUMPI PUSH1 0x0 DUP1 REVERT JUMPDEST POP PUSH2 0x164 PUSH2 0x18C CALLDATASIZE PUSH1 0x4 PUSH2 0x1446 JUMP JUMPDEST PUSH2 0x47F JUMP JUMPDEST CALLVALUE DUP1 ISZERO PUSH2 0x19D JUMPI PUSH1 0x0 DUP1 REVERT JUMPDEST POP PUSH2 0x10C PUSH2 0x1AC CALLDATASIZE PUSH1 0x4 PUSH2 0x1184 JUMP JUMPDEST PUSH1 0x1 PUSH1 0x1 PUSH1 0xA0 SHL SUB AND PUSH1 0x0 SWAP1 DUP2 MSTORE PUSH1 0x4 PUSH1 0x20 MSTORE PUSH1 0x40 SWAP1 KECCAK256 SLOAD SWAP1 JUMP JUMPDEST CALLVALUE DUP1 ISZERO PUSH2 0x1D3 JUMPI PUSH1 0x0 DUP1 REVERT JUMPDEST POP PUSH2 0x1E7 PUSH2 0x1E2 CALLDATASIZE PUSH1 0x4 PUSH2 0x11D7 JUMP JUMPDEST PUSH2 0x513 JUMP JUMPDEST STOP JUMPDEST CALLVALUE DUP1 ISZERO PUSH2 0x1F5 JUMPI PUSH1 0x0 DUP1 REVERT JUMPDEST POP PUSH2 0x209 PUSH2 0x204 CALLDATASIZE PUSH1 0x4 PUSH2 0x1343 JUMP JUMPDEST PUSH2 0x5AA JUMP JUMPDEST PUSH1 0x40 MLOAD PUSH2 0x116 SWAP2 SWAP1 PUSH2 0x1586 JUMP JUMPDEST CALLVALUE DUP1 ISZERO PUSH2 0x222 JUMPI PUSH1 0x0 DUP1 REVERT JUMPDEST POP PUSH2 0x10C PUSH1 0x7 SLOAD DUP2 JUMP JUMPDEST CALLVALUE DUP1 ISZERO PUSH2 0x238 JUMPI PUSH1 0x0 DUP1 REVERT JUMPDEST POP PUSH2 0x10C PUSH1 0x5 SLOAD DUP2 JUMP JUMPDEST CALLVALUE DUP1 ISZERO PUSH2 0x24E JUMPI PUSH1 0x0 DUP1 REVERT JUMPDEST POP PUSH2 0x164 PUSH2 0x70C JUMP JUMPDEST PUSH2 0x1E7 PUSH2 0x265 CALLDATASIZE PUSH1 0x4 PUSH2 0x1446 JUMP JUMPDEST PUSH2 0x719 JUMP JUMPDEST CALLVALUE DUP1 ISZERO PUSH2 0x276 JUMPI PUSH1 0x0 DUP1 REVERT JUMPDEST POP PUSH2 0x1E7 PUSH2 0x285 CALLDATASIZE PUSH1 0x4 PUSH2 0x12E0 JUMP JUMPDEST PUSH2 0x879 JUMP JUMPDEST CALLVALUE DUP1 ISZERO PUSH2 0x296 JUMPI PUSH1 0x0 DUP1 REVERT JUMPDEST POP PUSH1 0x5 SLOAD PUSH2 0x10C JUMP JUMPDEST CALLVALUE DUP1 ISZERO PUSH2 0x2AB JUMPI PUSH1 0x0 DUP1 REVERT JUMPDEST POP PUSH2 0x13F PUSH2 0x2BA CALLDATASIZE PUSH1 0x4 PUSH2 0x11A5 JUMP JUMPDEST PUSH1 0x1 PUSH1 0x1 PUSH1 0xA0 SHL SUB SWAP2 DUP3 AND PUSH1 0x0 SWAP1 DUP2 MSTORE PUSH1 0x1 PUSH1 0x20 SWAP1 DUP2 MSTORE PUSH1 0x40 DUP1 DUP4 KECCAK256 SWAP4 SWAP1 SWAP5 AND DUP3 MSTORE SWAP2 SWAP1 SWAP2 MSTORE KECCAK256 SLOAD PUSH1 0xFF AND SWAP1 JUMP JUMPDEST CALLVALUE DUP1 ISZERO PUSH2 0x2F4 JUMPI PUSH1 0x0 DUP1 REVERT JUMPDEST POP PUSH2 0x1E7 PUSH2 0x303 CALLDATASIZE PUSH1 0x4 PUSH2 0x127D JUMP JUMPDEST PUSH2 0x950 JUMP JUMPDEST PUSH1 0x0 PUSH1 0x1 PUSH1 0x1 PUSH1 0xA0 SHL SUB DUP4 AND PUSH2 0x379 JUMPI PUSH1 0x40 MLOAD PUSH3 0x461BCD PUSH1 0xE5 SHL DUP2 MSTORE PUSH1 0x20 PUSH1 0x4 DUP3 ADD MSTORE PUSH1 0x2B PUSH1 0x24 DUP3 ADD MSTORE PUSH32 0x455243313135353A2062616C616E636520717565727920666F7220746865207A PUSH1 0x44 DUP3 ADD MSTORE PUSH11 0x65726F2061646472657373 PUSH1 0xA8 SHL PUSH1 0x64 DUP3 ADD MSTORE PUSH1 0x84 ADD JUMPDEST PUSH1 0x40 MLOAD DUP1 SWAP2 SUB SWAP1 REVERT JUMPDEST POP PUSH1 0x0 SWAP1 DUP2 MSTORE PUSH1 0x20 DUP2 DUP2 MSTORE PUSH1 0x40 DUP1 DUP4 KECCAK256 PUSH1 0x1 PUSH1 0x1 PUSH1 0xA0 SHL SUB SWAP5 SWAP1 SWAP5 AND DUP4 MSTORE SWAP3 SWAP1 MSTORE KECCAK256 SLOAD SWAP1 JUMP JUMPDEST PUSH1 0x0 PUSH1 0x1 PUSH1 0x1 PUSH1 0xE0 SHL SUB NOT DUP3 AND PUSH4 0x6CDB3D13 PUSH1 0xE1 SHL EQ DUP1 PUSH2 0x3D0 JUMPI POP PUSH1 0x1 PUSH1 0x1 PUSH1 0xE0 SHL SUB NOT DUP3 AND PUSH4 0x3A24D07 PUSH1 0xE2 SHL EQ JUMPDEST DUP1 PUSH2 0x3EB JUMPI POP PUSH4 0x1FFC9A7 PUSH1 0xE0 SHL PUSH1 0x1 PUSH1 0x1 PUSH1 0xE0 SHL SUB NOT DUP4 AND EQ JUMPDEST SWAP3 SWAP2 POP POP JUMP JUMPDEST PUSH1 0x8 DUP1 SLOAD PUSH2 0x3FE SWAP1 PUSH2 0x173A JUMP JUMPDEST DUP1 PUSH1 0x1F ADD PUSH1 0x20 DUP1 SWAP2 DIV MUL PUSH1 0x20 ADD PUSH1 0x40 MLOAD SWAP1 DUP2 ADD PUSH1 0x40 MSTORE DUP1 SWAP3 SWAP2 SWAP1 DUP2 DUP2 MSTORE PUSH1 0x20 ADD DUP3 DUP1 SLOAD PUSH2 0x42A SWAP1 PUSH2 0x173A JUMP JUMPDEST DUP1 ISZERO PUSH2 0x477 JUMPI DUP1 PUSH1 0x1F LT PUSH2 0x44C JUMPI PUSH2 0x100 DUP1 DUP4 SLOAD DIV MUL DUP4 MSTORE SWAP2 PUSH1 0x20 ADD SWAP2 PUSH2 0x477 JUMP JUMPDEST DUP3 ADD SWAP2 SWAP1 PUSH1 0x0 MSTORE PUSH1 0x20 PUSH1 0x0 KECCAK256 SWAP1 JUMPDEST DUP2 SLOAD DUP2 MSTORE SWAP1 PUSH1 0x1 ADD SWAP1 PUSH1 0x20 ADD DUP1 DUP4 GT PUSH2 0x45A JUMPI DUP3 SWAP1 SUB PUSH1 0x1F AND DUP3 ADD SWAP2 JUMPDEST POP POP POP POP POP DUP2 JUMP JUMPDEST PUSH1 0x60 PUSH1 0x2 DUP1 SLOAD PUSH2 0x48E SWAP1 PUSH2 0x173A JUMP JUMPDEST DUP1 PUSH1 0x1F ADD PUSH1 0x20 DUP1 SWAP2 DIV MUL PUSH1 0x20 ADD PUSH1 0x40 MLOAD SWAP1 DUP2 ADD PUSH1 0x40 MSTORE DUP1 SWAP3 SWAP2 SWAP1 DUP2 DUP2 MSTORE PUSH1 0x20 ADD DUP3 DUP1 SLOAD PUSH2 0x4BA SWAP1 PUSH2 0x173A JUMP JUMPDEST DUP1 ISZERO PUSH2 0x507 JUMPI DUP1 PUSH1 0x1F LT PUSH2 0x4DC JUMPI PUSH2 0x100 DUP1 DUP4 SLOAD DIV MUL DUP4 MSTORE SWAP2 PUSH1 0x20 ADD SWAP2 PUSH2 0x507 JUMP JUMPDEST DUP3 ADD SWAP2 SWAP1 PUSH1 0x0 MSTORE PUSH1 0x20 PUSH1 0x0 KECCAK256 SWAP1 JUMPDEST DUP2 SLOAD DUP2 MSTORE SWAP1 PUSH1 0x1 ADD SWAP1 PUSH1 0x20 ADD DUP1 DUP4 GT PUSH2 0x4EA JUMPI DUP3 SWAP1 SUB PUSH1 0x1F AND DUP3 ADD SWAP2 JUMPDEST POP POP POP POP POP SWAP1 POP SWAP2 SWAP1 POP JUMP JUMPDEST PUSH1 0x1 PUSH1 0x1 PUSH1 0xA0 SHL SUB DUP6 AND CALLER EQ DUP1 PUSH2 0x52F JUMPI POP PUSH2 0x52F DUP6 CALLER PUSH2 0x2BA JUMP JUMPDEST PUSH2 0x596 JUMPI PUSH1 0x40 MLOAD PUSH3 0x461BCD PUSH1 0xE5 SHL DUP2 MSTORE PUSH1 0x20 PUSH1 0x4 DUP3 ADD MSTORE PUSH1 0x32 PUSH1 0x24 DUP3 ADD MSTORE PUSH32 0x455243313135353A207472616E736665722063616C6C6572206973206E6F7420 PUSH1 0x44 DUP3 ADD MSTORE PUSH18 0x1BDDDB995C881B9BDC88185C1C1C9BDD9959 PUSH1 0x72 SHL PUSH1 0x64 DUP3 ADD MSTORE PUSH1 0x84 ADD PUSH2 0x370 JUMP JUMPDEST PUSH2 0x5A3 DUP6 DUP6 DUP6 DUP6 DUP6 PUSH2 0x9D7 JUMP JUMPDEST POP POP POP POP POP JUMP JUMPDEST PUSH1 0x60 DUP2 MLOAD DUP4 MLOAD EQ PUSH2 0x60F JUMPI PUSH1 0x40 MLOAD PUSH3 0x461BCD PUSH1 0xE5 SHL DUP2 MSTORE PUSH1 0x20 PUSH1 0x4 DUP3 ADD MSTORE PUSH1 0x29 PUSH1 0x24 DUP3 ADD MSTORE PUSH32 0x455243313135353A206163636F756E747320616E6420696473206C656E677468 PUSH1 0x44 DUP3 ADD MSTORE PUSH9 0x40DAD2E6DAC2E8C6D PUSH1 0xBB SHL PUSH1 0x64 DUP3 ADD MSTORE PUSH1 0x84 ADD PUSH2 0x370 JUMP JUMPDEST PUSH1 0x0 DUP4 MLOAD PUSH8 0xFFFFFFFFFFFFFFFF DUP2 GT ISZERO PUSH2 0x639 JUMPI PUSH4 0x4E487B71 PUSH1 0xE0 SHL PUSH1 0x0 MSTORE PUSH1 0x41 PUSH1 0x4 MSTORE PUSH1 0x24 PUSH1 0x0 REVERT JUMPDEST PUSH1 0x40 MLOAD SWAP1 DUP1 DUP3 MSTORE DUP1 PUSH1 0x20 MUL PUSH1 0x20 ADD DUP3 ADD PUSH1 0x40 MSTORE DUP1 ISZERO PUSH2 0x662 JUMPI DUP2 PUSH1 0x20 ADD PUSH1 0x20 DUP3 MUL DUP1 CALLDATASIZE DUP4 CALLDATACOPY ADD SWAP1 POP JUMPDEST POP SWAP1 POP PUSH1 0x0 JUMPDEST DUP5 MLOAD DUP2 LT ISZERO PUSH2 0x704 JUMPI PUSH2 0x6C9 DUP6 DUP3 DUP2 MLOAD DUP2 LT PUSH2 0x694 JUMPI PUSH4 0x4E487B71 PUSH1 0xE0 SHL PUSH1 0x0 MSTORE PUSH1 0x32 PUSH1 0x4 MSTORE PUSH1 0x24 PUSH1 0x0 REVERT JUMPDEST PUSH1 0x20 MUL PUSH1 0x20 ADD ADD MLOAD DUP6 DUP4 DUP2 MLOAD DUP2 LT PUSH2 0x6BC JUMPI PUSH4 0x4E487B71 PUSH1 0xE0 SHL PUSH1 0x0 MSTORE PUSH1 0x32 PUSH1 0x4 MSTORE PUSH1 0x24 PUSH1 0x0 REVERT JUMPDEST PUSH1 0x20 MUL PUSH1 0x20 ADD ADD MLOAD PUSH2 0x308 JUMP JUMPDEST DUP3 DUP3 DUP2 MLOAD DUP2 LT PUSH2 0x6E9 JUMPI PUSH4 0x4E487B71 PUSH1 0xE0 SHL PUSH1 0x0 MSTORE PUSH1 0x32 PUSH1 0x4 MSTORE PUSH1 0x24 PUSH1 0x0 REVERT JUMPDEST PUSH1 0x20 SWAP1 DUP2 MUL SWAP2 SWAP1 SWAP2 ADD ADD MSTORE PUSH2 0x6FD DUP2 PUSH2 0x17A2 JUMP JUMPDEST SWAP1 POP PUSH2 0x668 JUMP JUMPDEST POP SWAP4 SWAP3 POP POP POP JUMP JUMPDEST PUSH1 0x9 DUP1 SLOAD PUSH2 0x3FE SWAP1 PUSH2 0x173A JUMP JUMPDEST PUSH1 0x0 PUSH1 0x5 SLOAD GT PUSH2 0x759 JUMPI PUSH1 0x40 MLOAD PUSH3 0x461BCD PUSH1 0xE5 SHL DUP2 MSTORE PUSH1 0x20 PUSH1 0x4 DUP3 ADD MSTORE PUSH1 0xB PUSH1 0x24 DUP3 ADD MSTORE PUSH11 0x6F7574206F66204E465473 PUSH1 0xA8 SHL PUSH1 0x44 DUP3 ADD MSTORE PUSH1 0x64 ADD PUSH2 0x370 JUMP JUMPDEST PUSH1 0x3 SLOAD PUSH1 0x6 SLOAD PUSH1 0x1 PUSH1 0x1 PUSH1 0xA0 SHL SUB SWAP1 SWAP2 AND SWAP1 PUSH2 0x775 SWAP1 DUP4 PUSH2 0x16ED JUMP JUMPDEST PUSH1 0x40 MLOAD PUSH1 0x0 DUP2 DUP2 DUP2 DUP6 DUP8 GAS CALL SWAP3 POP POP POP RETURNDATASIZE DUP1 PUSH1 0x0 DUP2 EQ PUSH2 0x7B1 JUMPI PUSH1 0x40 MLOAD SWAP2 POP PUSH1 0x1F NOT PUSH1 0x3F RETURNDATASIZE ADD AND DUP3 ADD PUSH1 0x40 MSTORE RETURNDATASIZE DUP3 MSTORE RETURNDATASIZE PUSH1 0x0 PUSH1 0x20 DUP5 ADD RETURNDATACOPY PUSH2 0x7B6 JUMP JUMPDEST PUSH1 0x60 SWAP2 POP JUMPDEST POP POP POP PUSH1 0x0 JUMPDEST DUP2 DUP2 LT ISZERO PUSH2 0x823 JUMPI PUSH2 0x7FB CALLER PUSH1 0x6 PUSH1 0x5 SLOAD PUSH1 0x7 SLOAD PUSH2 0x7DA SWAP2 SWAP1 PUSH2 0x170C JUMP JUMPDEST PUSH2 0x7E4 SWAP2 SWAP1 PUSH2 0x170C JUMP JUMPDEST PUSH1 0x1 PUSH1 0x40 MLOAD DUP1 PUSH1 0x20 ADD PUSH1 0x40 MSTORE DUP1 PUSH1 0x0 DUP2 MSTORE POP PUSH2 0xBD0 JUMP JUMPDEST PUSH1 0x5 DUP1 SLOAD SWAP1 PUSH1 0x0 PUSH2 0x80B DUP4 PUSH2 0x1723 JUMP JUMPDEST SWAP2 SWAP1 POP SSTORE POP DUP1 DUP1 PUSH2 0x81B SWAP1 PUSH2 0x17A2 JUMP JUMPDEST SWAP2 POP POP PUSH2 0x7BC JUMP JUMPDEST POP CALLER PUSH1 0x0 SWAP1 DUP2 MSTORE PUSH1 0x4 PUSH1 0x20 MSTORE PUSH1 0x40 SWAP1 KECCAK256 SLOAD ISZERO PUSH2 0x863 JUMPI CALLER PUSH1 0x0 SWAP1 DUP2 MSTORE PUSH1 0x4 PUSH1 0x20 MSTORE PUSH1 0x40 DUP2 KECCAK256 DUP1 SLOAD DUP4 SWAP3 SWAP1 PUSH2 0x858 SWAP1 DUP5 SWAP1 PUSH2 0x16D5 JUMP JUMPDEST SWAP1 SWAP2 SSTORE POP PUSH2 0x876 SWAP1 POP JUMP JUMPDEST CALLER PUSH1 0x0 SWAP1 DUP2 MSTORE PUSH1 0x4 PUSH1 0x20 MSTORE PUSH1 0x40 SWAP1 KECCAK256 DUP2 SWAP1 SSTORE JUMPDEST POP JUMP JUMPDEST CALLER PUSH1 0x1 PUSH1 0x1 PUSH1 0xA0 SHL SUB DUP4 AND EQ ISZERO PUSH2 0x8E4 JUMPI PUSH1 0x40 MLOAD PUSH3 0x461BCD PUSH1 0xE5 SHL DUP2 MSTORE PUSH1 0x20 PUSH1 0x4 DUP3 ADD MSTORE PUSH1 0x29 PUSH1 0x24 DUP3 ADD MSTORE PUSH32 0x455243313135353A2073657474696E6720617070726F76616C20737461747573 PUSH1 0x44 DUP3 ADD MSTORE PUSH9 0x103337B91039B2B633 PUSH1 0xB9 SHL PUSH1 0x64 DUP3 ADD MSTORE PUSH1 0x84 ADD PUSH2 0x370 JUMP JUMPDEST CALLER PUSH1 0x0 DUP2 DUP2 MSTORE PUSH1 0x1 PUSH1 0x20 SWAP1 DUP2 MSTORE PUSH1 0x40 DUP1 DUP4 KECCAK256 PUSH1 0x1 PUSH1 0x1 PUSH1 0xA0 SHL SUB DUP8 AND DUP1 DUP6 MSTORE SWAP1 DUP4 MSTORE SWAP3 DUP2 SWAP1 KECCAK256 DUP1 SLOAD PUSH1 0xFF NOT AND DUP7 ISZERO ISZERO SWAP1 DUP2 OR SWAP1 SWAP2 SSTORE SWAP1 MLOAD SWAP1 DUP2 MSTORE SWAP2 SWAP3 SWAP2 PUSH32 0x17307EAB39AB6107E8899845AD3D59BD9653F200F220920489CA2B5937696C31 SWAP2 ADD PUSH1 0x40 MLOAD DUP1 SWAP2 SUB SWAP1 LOG3 POP POP JUMP JUMPDEST PUSH1 0x1 PUSH1 0x1 PUSH1 0xA0 SHL SUB DUP6 AND CALLER EQ DUP1 PUSH2 0x96C JUMPI POP PUSH2 0x96C DUP6 CALLER PUSH2 0x2BA JUMP JUMPDEST PUSH2 0x9CA JUMPI PUSH1 0x40 MLOAD PUSH3 0x461BCD PUSH1 0xE5 SHL DUP2 MSTORE PUSH1 0x20 PUSH1 0x4 DUP3 ADD MSTORE PUSH1 0x29 PUSH1 0x24 DUP3 ADD MSTORE PUSH32 0x455243313135353A2063616C6C6572206973206E6F74206F776E6572206E6F72 PUSH1 0x44 DUP3 ADD MSTORE PUSH9 0x8185C1C1C9BDD9959 PUSH1 0xBA SHL PUSH1 0x64 DUP3 ADD MSTORE PUSH1 0x84 ADD PUSH2 0x370 JUMP JUMPDEST PUSH2 0x5A3 DUP6 DUP6 DUP6 DUP6 DUP6 PUSH2 0xCDA JUMP JUMPDEST DUP2 MLOAD DUP4 MLOAD EQ PUSH2 0xA39 JUMPI PUSH1 0x40 MLOAD PUSH3 0x461BCD PUSH1 0xE5 SHL DUP2 MSTORE PUSH1 0x20 PUSH1 0x4 DUP3 ADD MSTORE PUSH1 0x28 PUSH1 0x24 DUP3 ADD MSTORE PUSH32 0x455243313135353A2069647320616E6420616D6F756E7473206C656E67746820 PUSH1 0x44 DUP3 ADD MSTORE PUSH8 0xDAD2E6DAC2E8C6D PUSH1 0xC3 SHL PUSH1 0x64 DUP3 ADD MSTORE PUSH1 0x84 ADD PUSH2 0x370 JUMP JUMPDEST PUSH1 0x1 PUSH1 0x1 PUSH1 0xA0 SHL SUB DUP5 AND PUSH2 0xA5F JUMPI PUSH1 0x40 MLOAD PUSH3 0x461BCD PUSH1 0xE5 SHL DUP2 MSTORE PUSH1 0x4 ADD PUSH2 0x370 SWAP1 PUSH2 0x1622 JUMP JUMPDEST CALLER PUSH1 0x0 JUMPDEST DUP5 MLOAD DUP2 LT ISZERO PUSH2 0xB62 JUMPI PUSH1 0x0 DUP6 DUP3 DUP2 MLOAD DUP2 LT PUSH2 0xA8E JUMPI PUSH4 0x4E487B71 PUSH1 0xE0 SHL PUSH1 0x0 MSTORE PUSH1 0x32 PUSH1 0x4 MSTORE PUSH1 0x24 PUSH1 0x0 REVERT JUMPDEST PUSH1 0x20 MUL PUSH1 0x20 ADD ADD MLOAD SWAP1 POP PUSH1 0x0 DUP6 DUP4 DUP2 MLOAD DUP2 LT PUSH2 0xABA JUMPI PUSH4 0x4E487B71 PUSH1 0xE0 SHL PUSH1 0x0 MSTORE PUSH1 0x32 PUSH1 0x4 MSTORE PUSH1 0x24 PUSH1 0x0 REVERT JUMPDEST PUSH1 0x20 SWAP1 DUP2 MUL SWAP2 SWAP1 SWAP2 ADD DUP2 ADD MLOAD PUSH1 0x0 DUP5 DUP2 MSTORE DUP1 DUP4 MSTORE PUSH1 0x40 DUP1 DUP3 KECCAK256 PUSH1 0x1 PUSH1 0x1 PUSH1 0xA0 SHL SUB DUP15 AND DUP4 MSTORE SWAP1 SWAP4 MSTORE SWAP2 SWAP1 SWAP2 KECCAK256 SLOAD SWAP1 SWAP2 POP DUP2 DUP2 LT ISZERO PUSH2 0xB0A JUMPI PUSH1 0x40 MLOAD PUSH3 0x461BCD PUSH1 0xE5 SHL DUP2 MSTORE PUSH1 0x4 ADD PUSH2 0x370 SWAP1 PUSH2 0x1667 JUMP JUMPDEST PUSH1 0x0 DUP4 DUP2 MSTORE PUSH1 0x20 DUP2 DUP2 MSTORE PUSH1 0x40 DUP1 DUP4 KECCAK256 PUSH1 0x1 PUSH1 0x1 PUSH1 0xA0 SHL SUB DUP15 DUP2 AND DUP6 MSTORE SWAP3 MSTORE DUP1 DUP4 KECCAK256 DUP6 DUP6 SUB SWAP1 SSTORE SWAP1 DUP12 AND DUP3 MSTORE DUP2 KECCAK256 DUP1 SLOAD DUP5 SWAP3 SWAP1 PUSH2 0xB47 SWAP1 DUP5 SWAP1 PUSH2 0x16D5 JUMP JUMPDEST SWAP3 POP POP DUP2 SWAP1 SSTORE POP POP POP POP DUP1 PUSH2 0xB5B SWAP1 PUSH2 0x17A2 JUMP JUMPDEST SWAP1 POP PUSH2 0xA63 JUMP JUMPDEST POP DUP5 PUSH1 0x1 PUSH1 0x1 PUSH1 0xA0 SHL SUB AND DUP7 PUSH1 0x1 PUSH1 0x1 PUSH1 0xA0 SHL SUB AND DUP3 PUSH1 0x1 PUSH1 0x1 PUSH1 0xA0 SHL SUB AND PUSH32 0x4A39DC06D4C0DBC64B70AF90FD698A233A518AA5D07E595D983B8C0526C8F7FB DUP8 DUP8 PUSH1 0x40 MLOAD PUSH2 0xBB2 SWAP3 SWAP2 SWAP1 PUSH2 0x1599 JUMP JUMPDEST PUSH1 0x40 MLOAD DUP1 SWAP2 SUB SWAP1 LOG4 PUSH2 0xBC8 DUP2 DUP8 DUP8 DUP8 DUP8 DUP8 PUSH2 0xDF7 JUMP JUMPDEST POP POP POP POP POP POP JUMP JUMPDEST PUSH1 0x1 PUSH1 0x1 PUSH1 0xA0 SHL SUB DUP5 AND PUSH2 0xC30 JUMPI PUSH1 0x40 MLOAD PUSH3 0x461BCD PUSH1 0xE5 SHL DUP2 MSTORE PUSH1 0x20 PUSH1 0x4 DUP3 ADD MSTORE PUSH1 0x21 PUSH1 0x24 DUP3 ADD MSTORE PUSH32 0x455243313135353A206D696E7420746F20746865207A65726F20616464726573 PUSH1 0x44 DUP3 ADD MSTORE PUSH1 0x73 PUSH1 0xF8 SHL PUSH1 0x64 DUP3 ADD MSTORE PUSH1 0x84 ADD PUSH2 0x370 JUMP JUMPDEST CALLER PUSH2 0xC4A DUP2 PUSH1 0x0 DUP8 PUSH2 0xC41 DUP9 PUSH2 0xF62 JUMP JUMPDEST PUSH2 0x5A3 DUP9 PUSH2 0xF62 JUMP JUMPDEST PUSH1 0x0 DUP5 DUP2 MSTORE PUSH1 0x20 DUP2 DUP2 MSTORE PUSH1 0x40 DUP1 DUP4 KECCAK256 PUSH1 0x1 PUSH1 0x1 PUSH1 0xA0 SHL SUB DUP10 AND DUP5 MSTORE SWAP1 SWAP2 MSTORE DUP2 KECCAK256 DUP1 SLOAD DUP6 SWAP3 SWAP1 PUSH2 0xC7A SWAP1 DUP5 SWAP1 PUSH2 0x16D5 JUMP JUMPDEST SWAP1 SWAP2 SSTORE POP POP PUSH1 0x40 DUP1 MLOAD DUP6 DUP2 MSTORE PUSH1 0x20 DUP2 ADD DUP6 SWAP1 MSTORE PUSH1 0x1 PUSH1 0x1 PUSH1 0xA0 SHL SUB DUP1 DUP9 AND SWAP3 PUSH1 0x0 SWAP3 SWAP2 DUP6 AND SWAP2 PUSH32 0xC3D58168C5AE7397731D063D5BBF3D657854427343F4C083240F7AACAA2D0F62 SWAP2 ADD PUSH1 0x40 MLOAD DUP1 SWAP2 SUB SWAP1 LOG4 PUSH2 0x5A3 DUP2 PUSH1 0x0 DUP8 DUP8 DUP8 DUP8 PUSH2 0xFBB JUMP JUMPDEST PUSH1 0x1 PUSH1 0x1 PUSH1 0xA0 SHL SUB DUP5 AND PUSH2 0xD00 JUMPI PUSH1 0x40 MLOAD PUSH3 0x461BCD PUSH1 0xE5 SHL DUP2 MSTORE PUSH1 0x4 ADD PUSH2 0x370 SWAP1 PUSH2 0x1622 JUMP JUMPDEST CALLER PUSH2 0xD10 DUP2 DUP8 DUP8 PUSH2 0xC41 DUP9 PUSH2 0xF62 JUMP JUMPDEST PUSH1 0x0 DUP5 DUP2 MSTORE PUSH1 0x20 DUP2 DUP2 MSTORE PUSH1 0x40 DUP1 DUP4 KECCAK256 PUSH1 0x1 PUSH1 0x1 PUSH1 0xA0 SHL SUB DUP11 AND DUP5 MSTORE SWAP1 SWAP2 MSTORE SWAP1 KECCAK256 SLOAD DUP4 DUP2 LT ISZERO PUSH2 0xD51 JUMPI PUSH1 0x40 MLOAD PUSH3 0x461BCD PUSH1 0xE5 SHL DUP2 MSTORE PUSH1 0x4 ADD PUSH2 0x370 SWAP1 PUSH2 0x1667 JUMP JUMPDEST PUSH1 0x0 DUP6 DUP2 MSTORE PUSH1 0x20 DUP2 DUP2 MSTORE PUSH1 0x40 DUP1 DUP4 KECCAK256 PUSH1 0x1 PUSH1 0x1 PUSH1 0xA0 SHL SUB DUP12 DUP2 AND DUP6 MSTORE SWAP3 MSTORE DUP1 DUP4 KECCAK256 DUP8 DUP6 SUB SWAP1 SSTORE SWAP1 DUP9 AND DUP3 MSTORE DUP2 KECCAK256 DUP1 SLOAD DUP7 SWAP3 SWAP1 PUSH2 0xD8E SWAP1 DUP5 SWAP1 PUSH2 0x16D5 JUMP JUMPDEST SWAP1 SWAP2 SSTORE POP POP PUSH1 0x40 DUP1 MLOAD DUP7 DUP2 MSTORE PUSH1 0x20 DUP2 ADD DUP7 SWAP1 MSTORE PUSH1 0x1 PUSH1 0x1 PUSH1 0xA0 SHL SUB DUP1 DUP10 AND SWAP3 DUP11 DUP3 AND SWAP3 SWAP2 DUP7 AND SWAP2 PUSH32 0xC3D58168C5AE7397731D063D5BBF3D657854427343F4C083240F7AACAA2D0F62 SWAP2 ADD PUSH1 0x40 MLOAD DUP1 SWAP2 SUB SWAP1 LOG4 PUSH2 0xDEE DUP3 DUP9 DUP9 DUP9 DUP9 DUP9 PUSH2 0xFBB JUMP JUMPDEST POP POP POP POP POP POP POP JUMP JUMPDEST PUSH1 0x1 PUSH1 0x1 PUSH1 0xA0 SHL SUB DUP5 AND EXTCODESIZE ISZERO PUSH2 0xBC8 JUMPI PUSH1 0x40 MLOAD PUSH4 0xBC197C81 PUSH1 0xE0 SHL DUP2 MSTORE PUSH1 0x1 PUSH1 0x1 PUSH1 0xA0 SHL SUB DUP6 AND SWAP1 PUSH4 0xBC197C81 SWAP1 PUSH2 0xE3B SWAP1 DUP10 SWAP1 DUP10 SWAP1 DUP9 SWAP1 DUP9 SWAP1 DUP9 SWAP1 PUSH1 0x4 ADD PUSH2 0x14E3 JUMP JUMPDEST PUSH1 0x20 PUSH1 0x40 MLOAD DUP1 DUP4 SUB DUP2 PUSH1 0x0 DUP8 DUP1 EXTCODESIZE ISZERO DUP1 ISZERO PUSH2 0xE55 JUMPI PUSH1 0x0 DUP1 REVERT JUMPDEST POP GAS CALL SWAP3 POP POP POP DUP1 ISZERO PUSH2 0xE85 JUMPI POP PUSH1 0x40 DUP1 MLOAD PUSH1 0x1F RETURNDATASIZE SWAP1 DUP2 ADD PUSH1 0x1F NOT AND DUP3 ADD SWAP1 SWAP3 MSTORE PUSH2 0xE82 SWAP2 DUP2 ADD SWAP1 PUSH2 0x142A JUMP JUMPDEST PUSH1 0x1 JUMPDEST PUSH2 0xF32 JUMPI PUSH2 0xE91 PUSH2 0x17E9 JUMP JUMPDEST DUP1 PUSH4 0x8C379A0 EQ ISZERO PUSH2 0xECB JUMPI POP PUSH2 0xEA6 PUSH2 0x1801 JUMP JUMPDEST DUP1 PUSH2 0xEB1 JUMPI POP PUSH2 0xECD JUMP JUMPDEST DUP1 PUSH1 0x40 MLOAD PUSH3 0x461BCD PUSH1 0xE5 SHL DUP2 MSTORE PUSH1 0x4 ADD PUSH2 0x370 SWAP2 SWAP1 PUSH2 0x15C7 JUMP JUMPDEST POP JUMPDEST PUSH1 0x40 MLOAD PUSH3 0x461BCD PUSH1 0xE5 SHL DUP2 MSTORE PUSH1 0x20 PUSH1 0x4 DUP3 ADD MSTORE PUSH1 0x34 PUSH1 0x24 DUP3 ADD MSTORE PUSH32 0x455243313135353A207472616E7366657220746F206E6F6E2045524331313535 PUSH1 0x44 DUP3 ADD MSTORE PUSH20 0x2932B1B2B4BB32B91034B6B83632B6B2B73A32B9 PUSH1 0x61 SHL PUSH1 0x64 DUP3 ADD MSTORE PUSH1 0x84 ADD PUSH2 0x370 JUMP JUMPDEST PUSH1 0x1 PUSH1 0x1 PUSH1 0xE0 SHL SUB NOT DUP2 AND PUSH4 0xBC197C81 PUSH1 0xE0 SHL EQ PUSH2 0xDEE JUMPI PUSH1 0x40 MLOAD PUSH3 0x461BCD PUSH1 0xE5 SHL DUP2 MSTORE PUSH1 0x4 ADD PUSH2 0x370 SWAP1 PUSH2 0x15DA JUMP JUMPDEST PUSH1 0x40 DUP1 MLOAD PUSH1 0x1 DUP1 DUP3 MSTORE DUP2 DUP4 ADD SWAP1 SWAP3 MSTORE PUSH1 0x60 SWAP2 PUSH1 0x0 SWAP2 SWAP1 PUSH1 0x20 DUP1 DUP4 ADD SWAP1 DUP1 CALLDATASIZE DUP4 CALLDATACOPY ADD SWAP1 POP POP SWAP1 POP DUP3 DUP2 PUSH1 0x0 DUP2 MLOAD DUP2 LT PUSH2 0xFAA JUMPI PUSH4 0x4E487B71 PUSH1 0xE0 SHL PUSH1 0x0 MSTORE PUSH1 0x32 PUSH1 0x4 MSTORE PUSH1 0x24 PUSH1 0x0 REVERT JUMPDEST PUSH1 0x20 SWAP1 DUP2 MUL SWAP2 SWAP1 SWAP2 ADD ADD MSTORE SWAP3 SWAP2 POP POP JUMP JUMPDEST PUSH1 0x1 PUSH1 0x1 PUSH1 0xA0 SHL SUB DUP5 AND EXTCODESIZE ISZERO PUSH2 0xBC8 JUMPI PUSH1 0x40 MLOAD PUSH4 0xF23A6E61 PUSH1 0xE0 SHL DUP2 MSTORE PUSH1 0x1 PUSH1 0x1 PUSH1 0xA0 SHL SUB DUP6 AND SWAP1 PUSH4 0xF23A6E61 SWAP1 PUSH2 0xFFF SWAP1 DUP10 SWAP1 DUP10 SWAP1 DUP9 SWAP1 DUP9 SWAP1 DUP9 SWAP1 PUSH1 0x4 ADD PUSH2 0x1541 JUMP JUMPDEST PUSH1 0x20 PUSH1 0x40 MLOAD DUP1 DUP4 SUB DUP2 PUSH1 0x0 DUP8 DUP1 EXTCODESIZE ISZERO DUP1 ISZERO PUSH2 0x1019 JUMPI PUSH1 0x0 DUP1 REVERT JUMPDEST POP GAS CALL SWAP3 POP POP POP DUP1 ISZERO PUSH2 0x1049 JUMPI POP PUSH1 0x40 DUP1 MLOAD PUSH1 0x1F RETURNDATASIZE SWAP1 DUP2 ADD PUSH1 0x1F NOT AND DUP3 ADD SWAP1 SWAP3 MSTORE PUSH2 0x1046 SWAP2 DUP2 ADD SWAP1 PUSH2 0x142A JUMP JUMPDEST PUSH1 0x1 JUMPDEST PUSH2 0x1055 JUMPI PUSH2 0xE91 PUSH2 0x17E9 JUMP JUMPDEST PUSH1 0x1 PUSH1 0x1 PUSH1 0xE0 SHL SUB NOT DUP2 AND PUSH4 0xF23A6E61 PUSH1 0xE0 SHL EQ PUSH2 0xDEE JUMPI PUSH1 0x40 MLOAD PUSH3 0x461BCD PUSH1 0xE5 SHL DUP2 MSTORE PUSH1 0x4 ADD PUSH2 0x370 SWAP1 PUSH2 0x15DA JUMP JUMPDEST DUP1 CALLDATALOAD PUSH1 0x1 PUSH1 0x1 PUSH1 0xA0 SHL SUB DUP2 AND DUP2 EQ PUSH2 0x109C JUMPI PUSH1 0x0 DUP1 REVERT JUMPDEST SWAP2 SWAP1 POP JUMP JUMPDEST PUSH1 0x0 DUP3 PUSH1 0x1F DUP4 ADD SLT PUSH2 0x10B1 JUMPI DUP1 DUP2 REVERT JUMPDEST DUP2 CALLDATALOAD PUSH1 0x20 PUSH2 0x10BE DUP3 PUSH2 0x16B1 JUMP JUMPDEST PUSH1 0x40 MLOAD PUSH2 0x10CB DUP3 DUP3 PUSH2 0x1775 JUMP JUMPDEST DUP4 DUP2 MSTORE DUP3 DUP2 ADD SWAP2 POP DUP6 DUP4 ADD PUSH1 0x5 DUP6 SWAP1 SHL DUP8 ADD DUP5 ADD DUP9 LT ISZERO PUSH2 0x10EA JUMPI DUP6 DUP7 REVERT JUMPDEST DUP6 JUMPDEST DUP6 DUP2 LT ISZERO PUSH2 0x1108 JUMPI DUP2 CALLDATALOAD DUP5 MSTORE SWAP3 DUP5 ADD SWAP3 SWAP1 DUP5 ADD SWAP1 PUSH1 0x1 ADD PUSH2 0x10EC JUMP JUMPDEST POP SWAP1 SWAP8 SWAP7 POP POP POP POP POP POP POP JUMP JUMPDEST PUSH1 0x0 DUP3 PUSH1 0x1F DUP4 ADD SLT PUSH2 0x1125 JUMPI DUP1 DUP2 REVERT JUMPDEST DUP2 CALLDATALOAD PUSH8 0xFFFFFFFFFFFFFFFF DUP2 GT ISZERO PUSH2 0x113F JUMPI PUSH2 0x113F PUSH2 0x17D3 JUMP JUMPDEST PUSH1 0x40 MLOAD PUSH2 0x1156 PUSH1 0x1F DUP4 ADD PUSH1 0x1F NOT AND PUSH1 0x20 ADD DUP3 PUSH2 0x1775 JUMP JUMPDEST DUP2 DUP2 MSTORE DUP5 PUSH1 0x20 DUP4 DUP7 ADD ADD GT ISZERO PUSH2 0x116A JUMPI DUP3 DUP4 REVERT JUMPDEST DUP2 PUSH1 0x20 DUP6 ADD PUSH1 0x20 DUP4 ADD CALLDATACOPY SWAP1 DUP2 ADD PUSH1 0x20 ADD SWAP2 SWAP1 SWAP2 MSTORE SWAP3 SWAP2 POP POP JUMP JUMPDEST PUSH1 0x0 PUSH1 0x20 DUP3 DUP5 SUB SLT ISZERO PUSH2 0x1195 JUMPI DUP1 DUP2 REVERT JUMPDEST PUSH2 0x119E DUP3 PUSH2 0x1085 JUMP JUMPDEST SWAP4 SWAP3 POP POP POP JUMP JUMPDEST PUSH1 0x0 DUP1 PUSH1 0x40 DUP4 DUP6 SUB SLT ISZERO PUSH2 0x11B7 JUMPI DUP1 DUP2 REVERT JUMPDEST PUSH2 0x11C0 DUP4 PUSH2 0x1085 JUMP JUMPDEST SWAP2 POP PUSH2 0x11CE PUSH1 0x20 DUP5 ADD PUSH2 0x1085 JUMP JUMPDEST SWAP1 POP SWAP3 POP SWAP3 SWAP1 POP JUMP JUMPDEST PUSH1 0x0 DUP1 PUSH1 0x0 DUP1 PUSH1 0x0 PUSH1 0xA0 DUP7 DUP9 SUB SLT ISZERO PUSH2 0x11EE JUMPI DUP1 DUP2 REVERT JUMPDEST PUSH2 0x11F7 DUP7 PUSH2 0x1085 JUMP JUMPDEST SWAP5 POP PUSH2 0x1205 PUSH1 0x20 DUP8 ADD PUSH2 0x1085 JUMP JUMPDEST SWAP4 POP PUSH1 0x40 DUP7 ADD CALLDATALOAD PUSH8 0xFFFFFFFFFFFFFFFF DUP1 DUP3 GT ISZERO PUSH2 0x1221 JUMPI DUP3 DUP4 REVERT JUMPDEST PUSH2 0x122D DUP10 DUP4 DUP11 ADD PUSH2 0x10A1 JUMP JUMPDEST SWAP5 POP PUSH1 0x60 DUP9 ADD CALLDATALOAD SWAP2 POP DUP1 DUP3 GT ISZERO PUSH2 0x1242 JUMPI DUP3 DUP4 REVERT JUMPDEST PUSH2 0x124E DUP10 DUP4 DUP11 ADD PUSH2 0x10A1 JUMP JUMPDEST SWAP4 POP PUSH1 0x80 DUP9 ADD CALLDATALOAD SWAP2 POP DUP1 DUP3 GT ISZERO PUSH2 0x1263 JUMPI DUP3 DUP4 REVERT JUMPDEST POP PUSH2 0x1270 DUP9 DUP3 DUP10 ADD PUSH2 0x1115 JUMP JUMPDEST SWAP2 POP POP SWAP3 SWAP6 POP SWAP3 SWAP6 SWAP1 SWAP4 POP JUMP JUMPDEST PUSH1 0x0 DUP1 PUSH1 0x0 DUP1 PUSH1 0x0 PUSH1 0xA0 DUP7 DUP9 SUB SLT ISZERO PUSH2 0x1294 JUMPI DUP1 DUP2 REVERT JUMPDEST PUSH2 0x129D DUP7 PUSH2 0x1085 JUMP JUMPDEST SWAP5 POP PUSH2 0x12AB PUSH1 0x20 DUP8 ADD PUSH2 0x1085 JUMP JUMPDEST SWAP4 POP PUSH1 0x40 DUP7 ADD CALLDATALOAD SWAP3 POP PUSH1 0x60 DUP7 ADD CALLDATALOAD SWAP2 POP PUSH1 0x80 DUP7 ADD CALLDATALOAD PUSH8 0xFFFFFFFFFFFFFFFF DUP2 GT ISZERO PUSH2 0x12D4 JUMPI DUP2 DUP3 REVERT JUMPDEST PUSH2 0x1270 DUP9 DUP3 DUP10 ADD PUSH2 0x1115 JUMP JUMPDEST PUSH1 0x0 DUP1 PUSH1 0x40 DUP4 DUP6 SUB SLT ISZERO PUSH2 0x12F2 JUMPI DUP2 DUP3 REVERT JUMPDEST PUSH2 0x12FB DUP4 PUSH2 0x1085 JUMP JUMPDEST SWAP2 POP PUSH1 0x20 DUP4 ADD CALLDATALOAD DUP1 ISZERO ISZERO DUP2 EQ PUSH2 0x130F JUMPI DUP2 DUP3 REVERT JUMPDEST DUP1 SWAP2 POP POP SWAP3 POP SWAP3 SWAP1 POP JUMP JUMPDEST PUSH1 0x0 DUP1 PUSH1 0x40 DUP4 DUP6 SUB SLT ISZERO PUSH2 0x132C JUMPI DUP2 DUP3 REVERT JUMPDEST PUSH2 0x1335 DUP4 PUSH2 0x1085 JUMP JUMPDEST SWAP5 PUSH1 0x20 SWAP4 SWAP1 SWAP4 ADD CALLDATALOAD SWAP4 POP POP POP JUMP JUMPDEST PUSH1 0x0 DUP1 PUSH1 0x40 DUP4 DUP6 SUB SLT ISZERO PUSH2 0x1355 JUMPI DUP2 DUP3 REVERT JUMPDEST DUP3 CALLDATALOAD PUSH8 0xFFFFFFFFFFFFFFFF DUP1 DUP3 GT ISZERO PUSH2 0x136C JUMPI DUP4 DUP5 REVERT JUMPDEST DUP2 DUP6 ADD SWAP2 POP DUP6 PUSH1 0x1F DUP4 ADD SLT PUSH2 0x137F JUMPI DUP4 DUP5 REVERT JUMPDEST DUP2 CALLDATALOAD PUSH1 0x20 PUSH2 0x138C DUP3 PUSH2 0x16B1 JUMP JUMPDEST PUSH1 0x40 MLOAD PUSH2 0x1399 DUP3 DUP3 PUSH2 0x1775 JUMP JUMPDEST DUP4 DUP2 MSTORE DUP3 DUP2 ADD SWAP2 POP DUP6 DUP4 ADD PUSH1 0x5 DUP6 SWAP1 SHL DUP8 ADD DUP5 ADD DUP12 LT ISZERO PUSH2 0x13B8 JUMPI DUP9 DUP10 REVERT JUMPDEST DUP9 SWAP7 POP JUMPDEST DUP5 DUP8 LT ISZERO PUSH2 0x13E1 JUMPI PUSH2 0x13CD DUP2 PUSH2 0x1085 JUMP JUMPDEST DUP4 MSTORE PUSH1 0x1 SWAP7 SWAP1 SWAP7 ADD SWAP6 SWAP2 DUP4 ADD SWAP2 DUP4 ADD PUSH2 0x13BC JUMP JUMPDEST POP SWAP7 POP POP DUP7 ADD CALLDATALOAD SWAP3 POP POP DUP1 DUP3 GT ISZERO PUSH2 0x13F7 JUMPI DUP3 DUP4 REVERT JUMPDEST POP PUSH2 0x1404 DUP6 DUP3 DUP7 ADD PUSH2 0x10A1 JUMP JUMPDEST SWAP2 POP POP SWAP3 POP SWAP3 SWAP1 POP JUMP JUMPDEST PUSH1 0x0 PUSH1 0x20 DUP3 DUP5 SUB SLT ISZERO PUSH2 0x141F JUMPI DUP1 DUP2 REVERT JUMPDEST DUP2 CALLDATALOAD PUSH2 0x119E DUP2 PUSH2 0x188B JUMP JUMPDEST PUSH1 0x0 PUSH1 0x20 DUP3 DUP5 SUB SLT ISZERO PUSH2 0x143B JUMPI DUP1 DUP2 REVERT JUMPDEST DUP2 MLOAD PUSH2 0x119E DUP2 PUSH2 0x188B JUMP JUMPDEST PUSH1 0x0 PUSH1 0x20 DUP3 DUP5 SUB SLT ISZERO PUSH2 0x1457 JUMPI DUP1 DUP2 REVERT JUMPDEST POP CALLDATALOAD SWAP2 SWAP1 POP JUMP JUMPDEST PUSH1 0x0 DUP2 MLOAD DUP1 DUP5 MSTORE PUSH1 0x20 DUP1 DUP6 ADD SWAP5 POP DUP1 DUP5 ADD DUP4 JUMPDEST DUP4 DUP2 LT ISZERO PUSH2 0x148D JUMPI DUP2 MLOAD DUP8 MSTORE SWAP6 DUP3 ADD SWAP6 SWAP1 DUP3 ADD SWAP1 PUSH1 0x1 ADD PUSH2 0x1471 JUMP JUMPDEST POP SWAP5 SWAP6 SWAP5 POP POP POP POP POP JUMP JUMPDEST PUSH1 0x0 DUP2 MLOAD DUP1 DUP5 MSTORE DUP2 JUMPDEST DUP2 DUP2 LT ISZERO PUSH2 0x14BD JUMPI PUSH1 0x20 DUP2 DUP6 ADD DUP2 ADD MLOAD DUP7 DUP4 ADD DUP3 ADD MSTORE ADD PUSH2 0x14A1 JUMP JUMPDEST DUP2 DUP2 GT ISZERO PUSH2 0x14CE JUMPI DUP3 PUSH1 0x20 DUP4 DUP8 ADD ADD MSTORE JUMPDEST POP PUSH1 0x1F ADD PUSH1 0x1F NOT AND SWAP3 SWAP1 SWAP3 ADD PUSH1 0x20 ADD SWAP3 SWAP2 POP POP JUMP JUMPDEST PUSH1 0x1 PUSH1 0x1 PUSH1 0xA0 SHL SUB DUP7 DUP2 AND DUP3 MSTORE DUP6 AND PUSH1 0x20 DUP3 ADD MSTORE PUSH1 0xA0 PUSH1 0x40 DUP3 ADD DUP2 SWAP1 MSTORE PUSH1 0x0 SWAP1 PUSH2 0x150F SWAP1 DUP4 ADD DUP7 PUSH2 0x145E JUMP JUMPDEST DUP3 DUP2 SUB PUSH1 0x60 DUP5 ADD MSTORE PUSH2 0x1521 DUP2 DUP7 PUSH2 0x145E JUMP JUMPDEST SWAP1 POP DUP3 DUP2 SUB PUSH1 0x80 DUP5 ADD MSTORE PUSH2 0x1535 DUP2 DUP6 PUSH2 0x1498 JUMP JUMPDEST SWAP9 SWAP8 POP POP POP POP POP POP POP POP JUMP JUMPDEST PUSH1 0x1 PUSH1 0x1 PUSH1 0xA0 SHL SUB DUP7 DUP2 AND DUP3 MSTORE DUP6 AND PUSH1 0x20 DUP3 ADD MSTORE PUSH1 0x40 DUP2 ADD DUP5 SWAP1 MSTORE PUSH1 0x60 DUP2 ADD DUP4 SWAP1 MSTORE PUSH1 0xA0 PUSH1 0x80 DUP3 ADD DUP2 SWAP1 MSTORE PUSH1 0x0 SWAP1 PUSH2 0x157B SWAP1 DUP4 ADD DUP5 PUSH2 0x1498 JUMP JUMPDEST SWAP8 SWAP7 POP POP POP POP POP POP POP JUMP JUMPDEST PUSH1 0x20 DUP2 MSTORE PUSH1 0x0 PUSH2 0x119E PUSH1 0x20 DUP4 ADD DUP5 PUSH2 0x145E JUMP JUMPDEST PUSH1 0x40 DUP2 MSTORE PUSH1 0x0 PUSH2 0x15AC PUSH1 0x40 DUP4 ADD DUP6 PUSH2 0x145E JUMP JUMPDEST DUP3 DUP2 SUB PUSH1 0x20 DUP5 ADD MSTORE PUSH2 0x15BE DUP2 DUP6 PUSH2 0x145E JUMP JUMPDEST SWAP6 SWAP5 POP POP POP POP POP JUMP JUMPDEST PUSH1 0x20 DUP2 MSTORE PUSH1 0x0 PUSH2 0x119E PUSH1 0x20 DUP4 ADD DUP5 PUSH2 0x1498 JUMP JUMPDEST PUSH1 0x20 DUP1 DUP3 MSTORE PUSH1 0x28 SWAP1 DUP3 ADD MSTORE PUSH32 0x455243313135353A204552433131353552656365697665722072656A65637465 PUSH1 0x40 DUP3 ADD MSTORE PUSH8 0x6420746F6B656E73 PUSH1 0xC0 SHL PUSH1 0x60 DUP3 ADD MSTORE PUSH1 0x80 ADD SWAP1 JUMP JUMPDEST PUSH1 0x20 DUP1 DUP3 MSTORE PUSH1 0x25 SWAP1 DUP3 ADD MSTORE PUSH32 0x455243313135353A207472616E7366657220746F20746865207A65726F206164 PUSH1 0x40 DUP3 ADD MSTORE PUSH5 0x6472657373 PUSH1 0xD8 SHL PUSH1 0x60 DUP3 ADD MSTORE PUSH1 0x80 ADD SWAP1 JUMP JUMPDEST PUSH1 0x20 DUP1 DUP3 MSTORE PUSH1 0x2A SWAP1 DUP3 ADD MSTORE PUSH32 0x455243313135353A20696E73756666696369656E742062616C616E636520666F PUSH1 0x40 DUP3 ADD MSTORE PUSH10 0x39103A3930B739B332B9 PUSH1 0xB1 SHL PUSH1 0x60 DUP3 ADD MSTORE PUSH1 0x80 ADD SWAP1 JUMP JUMPDEST PUSH1 0x0 PUSH8 0xFFFFFFFFFFFFFFFF DUP3 GT ISZERO PUSH2 0x16CB JUMPI PUSH2 0x16CB PUSH2 0x17D3 JUMP JUMPDEST POP PUSH1 0x5 SHL PUSH1 0x20 ADD SWAP1 JUMP JUMPDEST PUSH1 0x0 DUP3 NOT DUP3 GT ISZERO PUSH2 0x16E8 JUMPI PUSH2 0x16E8 PUSH2 0x17BD JUMP JUMPDEST POP ADD SWAP1 JUMP JUMPDEST PUSH1 0x0 DUP2 PUSH1 0x0 NOT DIV DUP4 GT DUP3 ISZERO ISZERO AND ISZERO PUSH2 0x1707 JUMPI PUSH2 0x1707 PUSH2 0x17BD JUMP JUMPDEST POP MUL SWAP1 JUMP JUMPDEST PUSH1 0x0 DUP3 DUP3 LT ISZERO PUSH2 0x171E JUMPI PUSH2 0x171E PUSH2 0x17BD JUMP JUMPDEST POP SUB SWAP1 JUMP JUMPDEST PUSH1 0x0 DUP2 PUSH2 0x1732 JUMPI PUSH2 0x1732 PUSH2 0x17BD JUMP JUMPDEST POP PUSH1 0x0 NOT ADD SWAP1 JUMP JUMPDEST PUSH1 0x1 DUP2 DUP2 SHR SWAP1 DUP3 AND DUP1 PUSH2 0x174E JUMPI PUSH1 0x7F DUP3 AND SWAP2 POP JUMPDEST PUSH1 0x20 DUP3 LT DUP2 EQ ISZERO PUSH2 0x176F JUMPI PUSH4 0x4E487B71 PUSH1 0xE0 SHL PUSH1 0x0 MSTORE PUSH1 0x22 PUSH1 0x4 MSTORE PUSH1 0x24 PUSH1 0x0 REVERT JUMPDEST POP SWAP2 SWAP1 POP JUMP JUMPDEST PUSH1 0x1F DUP3 ADD PUSH1 0x1F NOT AND DUP2 ADD PUSH8 0xFFFFFFFFFFFFFFFF DUP2 GT DUP3 DUP3 LT OR ISZERO PUSH2 0x179B JUMPI PUSH2 0x179B PUSH2 0x17D3 JUMP JUMPDEST PUSH1 0x40 MSTORE POP POP JUMP JUMPDEST PUSH1 0x0 PUSH1 0x0 NOT DUP3 EQ ISZERO PUSH2 0x17B6 JUMPI PUSH2 0x17B6 PUSH2 0x17BD JUMP JUMPDEST POP PUSH1 0x1 ADD SWAP1 JUMP JUMPDEST PUSH4 0x4E487B71 PUSH1 0xE0 SHL PUSH1 0x0 MSTORE PUSH1 0x11 PUSH1 0x4 MSTORE PUSH1 0x24 PUSH1 0x0 REVERT JUMPDEST PUSH4 0x4E487B71 PUSH1 0xE0 SHL PUSH1 0x0 MSTORE PUSH1 0x41 PUSH1 0x4 MSTORE PUSH1 0x24 PUSH1 0x0 REVERT JUMPDEST PUSH1 0x0 PUSH1 0x3 RETURNDATASIZE GT ISZERO PUSH2 0x17FE JUMPI PUSH1 0x4 DUP2 DUP3 RETURNDATACOPY MLOAD PUSH1 0xE0 SHR JUMPDEST SWAP1 JUMP JUMPDEST PUSH1 0x0 PUSH1 0x44 RETURNDATASIZE LT ISZERO PUSH2 0x180F JUMPI SWAP1 JUMP JUMPDEST PUSH1 0x40 MLOAD PUSH1 0x3 NOT RETURNDATASIZE DUP2 ADD PUSH1 0x4 DUP4 RETURNDATACOPY DUP2 MLOAD RETURNDATASIZE PUSH8 0xFFFFFFFFFFFFFFFF DUP2 PUSH1 0x24 DUP5 ADD GT DUP2 DUP5 GT OR ISZERO PUSH2 0x183F JUMPI POP POP POP POP POP SWAP1 JUMP JUMPDEST DUP3 DUP6 ADD SWAP2 POP DUP2 MLOAD DUP2 DUP2 GT ISZERO PUSH2 0x1857 JUMPI POP POP POP POP POP POP SWAP1 JUMP JUMPDEST DUP5 RETURNDATASIZE DUP8 ADD ADD PUSH1 0x20 DUP3 DUP6 ADD ADD GT ISZERO PUSH2 0x1871 JUMPI POP POP POP POP POP POP SWAP1 JUMP JUMPDEST PUSH2 0x1880 PUSH1 0x20 DUP3 DUP7 ADD ADD DUP8 PUSH2 0x1775 JUMP JUMPDEST POP SWAP1 SWAP6 SWAP5 POP POP POP POP POP JUMP JUMPDEST PUSH1 0x1 PUSH1 0x1 PUSH1 0xE0 SHL SUB NOT DUP2 AND DUP2 EQ PUSH2 0x876 JUMPI PUSH1 0x0 DUP1 REVERT INVALID LOG2 PUSH5 0x6970667358 0x22 SLT KECCAK256 JUMPDEST 0x21 GASPRICE DUP5 TIMESTAMP 0xBE 0xEC MSTORE8 DUP1 SWAP1 DUP3 0xB2 ADDMOD XOR 0xA5 0xA7 0xF8 0x2C 0xD9 0xEE 0xB5 PUSH19 0x9EEC12A6AC61B0439B9C64736F6C6343000804 STOP CALLER PUSH9 0x747470733A2F2F6970 PUSH7 0x732E696F2F6970 PUSH7 0x732F516D657837 PUSH3 0x517173 CALLDATALOAD PUSH23 0x57346E4B6774427A63796741506375767857487968394E PUSH8 0x727346325143366D SSTORE PUSH4 0x562F7B69 PUSH5 0x7D2E6A736F PUSH15 0x0 "
        },
        "gasEstimates": {
          "creation": {
            "codeDepositCost": "1271800",
            "executionCost": "infinite",
            "totalCost": "infinite"
          },
          "external": {
            "_tokens()": "1029",
            "_total()": "1007",
            "balanceOf(address,uint256)": "1395",
            "balanceOfBatch(address[],uint256[])": "infinite",
            "isApprovedForAll(address,address)": "infinite",
            "mint(uint256)": "infinite",
            "name()": "infinite",
            "safeBatchTransferFrom(address,address,uint256[],uint256[],bytes)": "infinite",
            "safeTransferFrom(address,address,uint256,uint256,bytes)": "infinite",
            "setApprovalForAll(address,bool)": "23250",
            "supportsInterface(bytes4)": "567",
            "symbol()": "infinite",
            "tokensCount()": "1025",
            "uri(uint256)": "infinite",
            "userHaveTokens(address)": "1271"
          }
        },
        "methodIdentifiers": {
          "_tokens()": "8970d84c",
          "_total()": "7a27da79",
          "balanceOf(address,uint256)": "00fdd58e",
          "balanceOfBatch(address[],uint256[])": "4e1273f4",
          "isApprovedForAll(address,address)": "e985e9c5",
          "mint(uint256)": "a0712d68",
          "name()": "06fdde03",
          "safeBatchTransferFrom(address,address,uint256[],uint256[],bytes)": "2eb2c2d6",
          "safeTransferFrom(address,address,uint256,uint256,bytes)": "f242432a",
          "setApprovalForAll(address,bool)": "a22cb465",
          "supportsInterface(bytes4)": "01ffc9a7",
          "symbol()": "95d89b41",
          "tokensCount()": "a64ed8ba",
          "uri(uint256)": "0e89341c",
          "userHaveTokens(address)": "1147a804"
        }
      },
      "storageLayout": {
        "storage": [
          {
            "astId": 25,
            "contract": "contracts/BluBoyX.sol:BluBoyX",
            "label": "_balances",
            "offset": 0,
            "slot": "0",
            "type": "t_mapping(t_uint256,t_mapping(t_address,t_uint256))"
          },
          {
            "astId": 31,
            "contract": "contracts/BluBoyX.sol:BluBoyX",
            "label": "_operatorApprovals",
            "offset": 0,
            "slot": "1",
            "type": "t_mapping(t_address,t_mapping(t_address,t_bool))"
          },
          {
            "astId": 33,
            "contract": "contracts/BluBoyX.sol:BluBoyX",
            "label": "_uri",
            "offset": 0,
            "slot": "2",
            "type": "t_string_storage"
          },
          {
            "astId": 1621,
            "contract": "contracts/BluBoyX.sol:BluBoyX",
            "label": "creator",
            "offset": 0,
            "slot": "3",
            "type": "t_address"
          },
          {
            "astId": 1625,
            "contract": "contracts/BluBoyX.sol:BluBoyX",
            "label": "userList",
            "offset": 0,
            "slot": "4",
            "type": "t_mapping(t_address,t_uint256)"
          },
          {
            "astId": 1627,
            "contract": "contracts/BluBoyX.sol:BluBoyX",
            "label": "_tokens",
            "offset": 0,
            "slot": "5",
            "type": "t_uint256"
          },
          {
            "astId": 1629,
            "contract": "contracts/BluBoyX.sol:BluBoyX",
            "label": "_price",
            "offset": 0,
            "slot": "6",
            "type": "t_uint256"
          },
          {
            "astId": 1631,
            "contract": "contracts/BluBoyX.sol:BluBoyX",
            "label": "_total",
            "offset": 0,
            "slot": "7",
            "type": "t_uint256"
          },
          {
            "astId": 1633,
            "contract": "contracts/BluBoyX.sol:BluBoyX",
            "label": "name",
            "offset": 0,
            "slot": "8",
            "type": "t_string_storage"
          },
          {
            "astId": 1635,
            "contract": "contracts/BluBoyX.sol:BluBoyX",
            "label": "symbol",
            "offset": 0,
            "slot": "9",
            "type": "t_string_storage"
          }
        ],
        "types": {
          "t_address": {
            "encoding": "inplace",
            "label": "address",
            "numberOfBytes": "20"
          },
          "t_bool": {
            "encoding": "inplace",
            "label": "bool",
            "numberOfBytes": "1"
          },
          "t_mapping(t_address,t_bool)": {
            "encoding": "mapping",
            "key": "t_address",
            "label": "mapping(address => bool)",
            "numberOfBytes": "32",
            "value": "t_bool"
          },
          "t_mapping(t_address,t_mapping(t_address,t_bool))": {
            "encoding": "mapping",
            "key": "t_address",
            "label": "mapping(address => mapping(address => bool))",
            "numberOfBytes": "32",
            "value": "t_mapping(t_address,t_bool)"
          },
          "t_mapping(t_address,t_uint256)": {
            "encoding": "mapping",
            "key": "t_address",
            "label": "mapping(address => uint256)",
            "numberOfBytes": "32",
            "value": "t_uint256"
          },
          "t_mapping(t_uint256,t_mapping(t_address,t_uint256))": {
            "encoding": "mapping",
            "key": "t_uint256",
            "label": "mapping(uint256 => mapping(address => uint256))",
            "numberOfBytes": "32",
            "value": "t_mapping(t_address,t_uint256)"
          },
          "t_string_storage": {
            "encoding": "bytes",
            "label": "string",
            "numberOfBytes": "32"
          },
          "t_uint256": {
            "encoding": "inplace",
            "label": "uint256",
            "numberOfBytes": "32"
          }
        }
      },
      "userdoc": {
        "kind": "user",
        "methods": {},
        "version": 1
      }
    }
  }
}